CC19301958115C201312110000002200000000048577202730T0KL02                                                                                                                                                
DD19301958115    UT022001112013-2DX14CORTIZ -HUAMAN-JOSE 2013121120131110000000000022500000000000000930000000000023430111017105705EFECTIVO    UT02200111PZCA  0008105705084949            0000000000    
DD19301958115    UT035000512013-2D514CGAMONA-ANCAJI-SOCOR2013121120131110000000000022500000000000000930000000000023430111017113769EFECTIVO    UT03500051PZBC  0008113769090159            0000000000    
DD19301958115    UT101029192013-2D224CVIVANC-ANCA  -PEDRO2013121120131207000000000025000000000000000120000000000025120111017113945EFECTIVO    UT10102919PZCD  0008113945090212            0000000000    
DD19301958115    UT032005272013-2D414CVALDEZ-HUAMAN-GIULI2013121120131110000000000022500000000000000930000000000023430250000015706EFECTIVO    UT03200527C10B  0000015706090224            0000000000    
DD19301958115    UT032005272013-2D424CVALDEZ-HUAMAN-GIULI2013121120131207000000000022500000000000000120000000000022620250000015706EFECTIVO    UT03200527C10B  0000015706090224            0000000000    
DD19301958115    UT101048822013-2B134CSANTOS-CUBAS -VERON2013121120131130000000000027000000000000000330000000000027330000000016390EFECTIVO    UT10104882CJAH  0000016390090327            0000000000    
DD19301958115    UT019003352013-2C234CHUAYHU-PHUTUR-JOSE 2013121120131207000000000022500000000000000120000000000022620111017124191EFECTIVO    UT01900335PZCB  0008124191091455            0000000000    
DD19301958115    UT038000842013-2D524CCANOVA-CHERO -MARIA2013121120131207000000000022500000000000000120000000000022620570007028452EFECTIVO    UT03800084J07C  0000028452091547            0000000000    
DD19301958115    UT019002392013-2D324CCHOQUE-QUISPE-LUZ M2013121120131207000000000022500000000000000120000000000022620111017124929EFECTIVO    UT01900239PZCC  0008124929091547            0000000000    
DD19301958115    UT101039862013-2C234CGRANDE-DE LA -WILFR2013121120131207000000000027000000000000000120000000000027120111023126545EFECTIVO    UT10103986TBX2  0008126545091736            0000000000    
DD19301958115    UT023003432013-2D424CCARBAJ-MONROY-VICTO2013121120131207000000000022500000000000000120000000000022620111017127838EFECTIVO    UT02300343PZAA  0008127838091901            0000000000    
DD19301958115    UT023003442013-2D424CLOPEZ -JUAREZ-FRANC2013121120131207000000000022500000000000000120000000000022620111017129883EFECTIVO    UT02300344PZAD  0008129883092123            0000000000    
DD19301958115    UT032005322013-2D414CPONCE -WENDOR-HECTO2013121120131110000000000022500000000000000930000000000023430111017131324EFECTIVO    UT03200532PZCE  0008131324092257            0000000000    
DD19301958115    UT028003482013-2D324CHUISA -TTITO -RENE 2013121120131207000000000022500000000000000120000000000022620111017134448EFECTIVO    UT02800348PZAA  0008134448092623            0000000000    
DD19301958115    IT014005902013-2B345CTAIPE -CASTRO-ELIZA2013121120131202000000000010000000000000000270000000000010270350000040951EFECTIVO    IT01400590C31A  0000040951092759            0000000000    
DD19301958115    IT014000432013-2B545COTANO -TITO  -DANIE2013121120131202000000000010000000000000000270000000000010270350000044342EFECTIVO    IT01400043C31B  0000044342093155            0000000000    
DD19301958115    UT101039112013-2C234CEGOAVI-ROCCA -ERICK2013121120131207000000000027000000000000000120000000000027120193043047586EFECTIVO    UT10103911843D  0000047586093524            0000000000    
DD19301958115    UT011002732013-2D324CPRADO -CANCHA-VIDAL2013121120131207000000000022500000000000000120000000000022620111017142930EFECTIVO    UT01100273PZDB  0008142930093526            0000000000    
DD19301958115    UT028000812013-2D614CJARATA-QUISPE-RICAR2013121120131110000000000022500000000000000930000000000023430111017151575EFECTIVO    UT02800081PZCC  0008151575094420            0000000000    
DD19301958115    UT028000812013-2D624CJARATA-QUISPE-RICAR2013121120131207000000000022500000000000000120000000000022620111017152715EFECTIVO    UT02800081PZCA  0008152715094530            0000000000    
DD19301958115    UT013004122013-2C234CSONCO -CAYLLA-VICEN2013121120131207000000000022500000000000000120000000000022620405003059649EFECTIVO    UT01300412SROG  0000059649094753            0000000000    
DD19301958115    UT032004842013-2D424CPALOMI-TANCO -VICTO2013121120131207000000000022500000000000000120000000000022620111017156601EFECTIVO    UT03200484PZAB  0008156601094922            0000000000    
DD19301958115  UT11103203832013-2D724CCARRIL-CORDOV-CAROL2013121120131207000000000017500000000000000120000000000017620000031064065EFECTIVO  UT1110320383031F  0000064065095238            0000000000    
DD19301958115    UT101024352013-2D324CCHECCO-LIVIMO-WALTE2013121120131207000000000025000000000000000120000000000025120111017165283EFECTIVO    UT10102435PZDC  0008165283095745            0000000000    
DD19301958115    UT023005942013-2DC24CCRUZ  -SAYRIT-KATY 2013121120131207000000000022500000000000000120000000000022620540000070801EFECTIVO    UT02300594TACD  0000070801095938            0000000000    
DD19301958115    UT017003022013-2D124CQUINTA-QUINTA-YEIMY2013121120131207000000000022500000000000000120000000000022620355004071637EFECTIVO    UT01700302CRSC  0000071637100025            0000000000    
DD19301958115    UT011003372013-2D224CALMEYD-GUTIER-RONAL2013121120131207000000000022500000000000000120000000000022620111017168216EFECTIVO    UT01100337PZAE  0008168216100035            0000000000    
DD19301958115    T1112100162013-2D524CLOZANO-ARCE  -MARIA2013121120131207000000000025000000000000000120000000000025120000044074063EFECTIVO    T111210016044A  0000074063100245            0000000000    
DD19301958115    UT101045732013-2B134CPIMENT-CHUNGA-GLORI2013121120131130000000000027000000000000000330000000000027330194025074554EFECTIVO    UT10104573725B  0000074554100313            0000000000    
DD19301958115    UT019002182013-2D324CIHUI  -ACHIRE-LUZ M2013121120131207000000000022500000000000000120000000000022620111017171032EFECTIVO    UT01900218PZDF  0008171032100321            0000000000    
DD19301958115    UT011003432013-2D224CROJAS -HUAMAN-ROXAN2013121120131207000000000022500000000000000120000000000022620220000075268EFECTIVO    UT01100343AYCD  0000075268100352            0000000000    
DD19301958115    IT012006102013-2B345CGONZAL-ANGULO-GREYS2013121120131202000000000010900000000000000270000000000011170111017177219EFECTIVO    IT01200610PZBA  0008177219100923            0000000000    
DD19301958115    UT101034802013-2D224CARIAS -CAMPOS-WENCE2013121120131207000000000027000000000000000120000000000027120194009082371EFECTIVO    UT10103480709E  0000082371101043            0000000000    
DD19301958115  UT11103205802013-2DC14CPACHEC-HERNAN-JOSE 2013121120131110000000000025000000000000000930000000000025930111017182216EFECTIVO  UT1110320580PZDB  0008182216101412            0000000000    
DD19301958115    UT012001692013-2D224CTORRES-REYNA -JULIO2013121120131207000000000022500000000000000120000000000022620192054091047EFECTIVO    UT01200169654E  0000091047101857            0000000000    
DD19301958115    UT029000732013-2D524CCUNEO -MORALE-ALEJA2013121120131207000000000022500000000000000120000000000022620300000094850EFECTIVO    UT02900073C14H  0000094850102225            0000000000    
DD19301958115    UT101034082013-2D224CMAYON -HUAYAS-RIGOB2013121120131207000000000027000000000000000120000000000027120000032099160EFECTIVO    UT10103408032E  0000099160102634            0000000000    
DD19301958115    UT032010502013-2D124CCONDOR-HUANQU-MIRIA2013121120131207000000000022500000000000000120000000000022620111017197746EFECTIVO    UT03201050PZAA  0008197746102846            0000000000    
DD19301958115    UT101024192013-2D324CBERROS-TORRES-MELIS2013121120131207000000000025000000000000000120000000000025120111017203409EFECTIVO    UT10102419PZBD  0008203409103407            0000000000    
DD19301958115    T2101061272013-2D924CRODRIG-SANCHE-EDUAR2013121120131207000000000025000000000000000120000000000025120193001107797EFECTIVO    T210106127801B  0000107797103450            0000000000    
DD19301958115    UT032007292013-2D324CYARIN -DE LOS-CAROL2013121120131207000000000022500000000000000120000000000022620215003119592EFECTIVO    UT03200729A03E  0000119592104609            0000000000    
DD19301958115    UT028005812013-2D224CTRISTA-PACCO -ELIBE2013121120131207000000000022500000000000000120000000000022620495000119812EFECTIVO    UT02800581CCWA  0000119812104622            0000000000    
DD19301958115    UT019001462013-2D524CHUALLP-NINA  -VICTO2013121120131207000000000022500000000000000120000000000022620533000125838EFECTIVO    UT01900146C38C  0000125838105147            0000000000    
DD19301958115    UT101037982013-2C234CNEIRA -CASTRO-MANUE2013121120131207000000000027000000000000000120000000000027120000093126630EFECTIVO    UT10103798093B  0000126630105234            0000000000    
DD19301958115    UT012000402013-2DX24CVARGAS-ASPAJO-STIVE2013121120131207000000000022500000000000000120000000000022620480000131262EFECTIVO    UT01200040PLLD  0000131262105644            0000000000    
DD19301958115    UT101032482013-2D224CENRIQU-VILCA -OSCAR2013121120131207000000000027000000000000000120000000000027120000067132606EFECTIVO    UT10103248067C  0000132606105800            0000000000    
DD19301958115    UT101032302013-2D224CSOCOLA-ALEJOS-ROSAL2013121120131207000000000027000000000000000120000000000027120192054137623EFECTIVO    UT10103230654G  0000137623110253            0000000000    
DD19301958115    UT022005572013-2C234CCASTRO-VARGAS-MERY 2013121120131207000000000022500000000000000120000000000022620285008138406EFECTIVO    UT02200557HYPB  0000138406110334            0000000000    
DD19301958115    UT028003142013-2D424CAZURIN-PILARE-MARIA2013121120131207000000000022500000000000000120000000000022620111017235847EFECTIVO    UT02800314PZDD  0008235847110356            0000000000    
DD19301958115    UT018000072013-2D714CFLORES-PERALT-BRAYA2013121120131110000000000022500000000000000930000000000023430245000142245EFECTIVO    UT01800007VADE  0000142245110716            0000000000    
DD19301958115    UT012001692013-2D234CTORRES-REYNA -JULIO2013121120140104000000000022500000000000000000000000000022500111017239820EFECTIVO    UT01200169PZBA  0008239820110735            0000000000    
DD19301958115    UT033004282013-2D224CRIOS  -PEREZ -BERLI2013121120131207000000000022500000000000000120000000000022620485000144523EFECTIVO    UT03300428C23A  0000144523110923            0000000000    
DD19301958115    IT026005222013-2B455CROJAS -MAHUA -WILDE2013121120140102000000000010000000000000000000000000000010000390001145919EFECTIVO    IT02600522Q01E  0000145919111040            0000000000    
DD19301958115    UT101029182013-2D224COCHOA -RAMOS -PEDRO2013121120131207000000000025000000000000000120000000000025120000021164323EFECTIVO    UT10102918021D  0000164323112633            0000000000    
DD19301958115    UT106001492013-2D324CGONZAL-NUNEZ -CESAR2013121120131207000000000025000000000000000120000000000025120000066165184EFECTIVO    UT10600149066E  0000165184112722            0000000000    
DD19301958115    UT101042342013-2D124CCARBON-INCA  -RUBEN2013121120131207000000000027000000000000000120000000000027120000105169883EFECTIVO    UT10104234105D  0000169883113142            0000000000    
DD19301958115    UT019004052013-2D124CCARLOS-TACO  -JORGE2013121120131207000000000022500000000000000120000000000022620533000178287EFECTIVO    UT01900405C38D  0000178287113928            0000000000    
DD19301958115    IT014005212013-2B445CPALOMI-ARANDA-MIGUE2013121120131202000000000010000000000000000270000000000010270350000179646EFECTIVO    IT01400521C31E  0000179646114050            0000000000    
DD19301958115    UT021001522013-2D324CPALOMI-FALCON-BRAYA2013121120131207000000000022500000000000000120000000000022620111017283068EFECTIVO    UT02100152PZAB  0008283068114845            0000000000    
DD19301958115    UT032007592013-2C234COTINIA-PANDUR-MAYRA2013121120131207000000000022500000000000000120000000000022620111023292467EFECTIVO    UT03200759TBK4  0008292467115757            0000000000    
DD19301958115    UT011002172013-2D424CQUISPE-ESPINO-FRIED2013121120131207000000000022500000000000000120000000000022620111017292638EFECTIVO    UT01100217PZDB  0008292638115807            0000000000    
DD19301958115    UT013002562013-2D324CQUISPE-VARGAS-JAVIE2013121120131207000000000022500000000000000120000000000022620405000204010EFECTIVO    UT01300256JULC  0000204010120424            0000000000    
DD19301958115    UT032005092013-2D424CPALOMI-CHAVEZ-YOSHY2013121120131207000000000022500000000000000120000000000022620111017304322EFECTIVO    UT03200509PZAC  0008304322120927            0000000000    
DD19301958115    IT007001972013-2B645CZURITA-COELLO-GENAR2013121120131202000000000010000000000000000270000000000010270111017313304EFECTIVO    IT00700197PZDD  0008313304121816            0000000000    
DD19301958115    UT032001422013-2D524CORTIZ -QUISPE-ROMIN2013121120131207000000000025000000000000000120000000000025120193000223343EFECTIVO    UT032001428PLC  0000223343122446            0000000000    
DD19301958115    UT101039122013-2C234CVIVANC-MENA  -ZOILA2013121120131207000000000027000000000000000120000000000027120192005223668EFECTIVO    UT10103912605G  0000223668122507            0000000000    
DD19301958115    UT101041512013-2D124CMARQUI-GARATE-LIZ E2013121120131207000000000027000000000000000120000000000027120000066225418EFECTIVO    UT10104151066D  0000225418122704            0000000000    
DD19301958115    UT101013442013-2D414CBRAVO -MOREAN-EDMUN2013121120131110000000000025000000000000000930000000000025930194048226388EFECTIVO    UT10101344748F  0000226388122801            0000000000    
DD19301958115    UT101040532013-2D124CROBLES-VELASQ-LESLI2013121120131207000000000027000000000000000120000000000027120193017226791EFECTIVO    UT10104053817A  0000226791122823            0000000000    
DD19301958115    UT999005182013-2DC24CHERCIL-LAGOS -CARLO2013121120131207000000000025000000000000000120000000000025120194032229949EFECTIVO    UT99900518732G  0000229949123215            0000000000    
DD19301958115    UT101031032013-2D224CARANCI-VELARD-LUIS 2013121120131207000000000027000000000000000120000000000027120193000235199EFECTIVO    UT101031038PLG  0000235199123801            0000000000    
DD19301958115    UT003002262013-2D324CPIO   -SIFUEN-KETTY2013121120131207000000000022500000000000000120000000000022620111017335747EFECTIVO    UT00300226PZBA  0008335747124029            0000000000    
DD19301958115    UT019001882013-2D424CQUISPE-MEDINA-NELLY2013121120131207000000000022500000000000000120000000000022620533000238844EFECTIVO    UT01900188C38F  0000238844124202            0000000000    
DD19301958115    UT023005012013-2C234CRUFFRA-MADRIA-JOSE 2013121120131207000000000022500000000000000120000000000022620111017341038EFECTIVO    UT02300501PZDC  0008341038124544            0000000000    
DD19301958115    UT013000702013-2D614CMAMANI-CEREZO-CELIA2013121120131110000000000022500000000000000930000000000023430111017343531EFECTIVO    UT01300070PZBA  0008343531124818            0000000000    
DD19301958115    UT101025752013-2D324CDAVILA-YURIVI-JAVIE2013121120131207000000000025000000000000000120000000000025120000097248884EFECTIVO    UT10102575097D  0000248884125301            0000000000    
DD19301958115    UT101037952013-2D224CPACHEC-ANORGA-NICOL2013121120131207000000000027000000000000000120000000000027120000109249281EFECTIVO    UT10103795109E  0000249281125327            0000000000    
DD19301958115    UT019001932013-2D314CPERALT-CRUZ  -GRIMA2013121120131110000000000022500000000000000930000000000023430285008255080EFECTIVO    UT01900193HYPC  0000255080125952            0000000000    
DD19301958115    UT101047782013-2D124CVIDAL -BINASC-WILFR2013121120131207000000000027000000000000000120000000000027120193038257994EFECTIVO    UT10104778LDAB  0000257994130332            0000000000    
DD19301958115    UT028001572013-2D324CQUISPE-SUCATI-SUDAI2013121120131210000000000022500000000000000030000000000022530495000261166EFECTIVO    UT02800157CCWF  0000261166130637            0000000000    
DD19301958115    IT010006202013-2B245CZARATE-DIOS  -JENNI2013121120131202000000000010000000000000000270000000000010270575000263240EFECTIVO    IT01000620CCMG  0000263240130905            0000000000    
DD19301958115    UT101040682013-2D134CCABELL-TRUJIL-ANTOL2013121120140104000000000027000000000000000000000000000027000000017266750EFECTIVO    UT10104068SJLA  0000266750131306            0000000000    
DD19301958115    UT999004202013-2DC24CSUAREZ-RIVERA-YULIS2013121120131207000000000028000000000000000120000000000028120111017374003EFECTIVO    UT99900420PZCB  0008374003131936            0000000000    
DD19301958115    UT101034952013-2D224CSAAVED-RENGIF-TANIA2013121120131207000000000017500000000000000120000000000017620000059277896EFECTIVO    UT10103495059F  0000277896132542            0000000000    
DD19301958115    UT021000522013-2D624CSIGUAS-MILACH-WALTE2013121120131207000000000022500000000000000120000000000022620111017379653EFECTIVO    UT02100052PZCE  0008379653132544            0000000000    
DD19301958115    UT101022782013-2D324CMAZUEL-NORIEG-RICAR2013121120131207000000000025000000000000000120000000000025120111017380685EFECTIVO    UT10102278PZAB  0008380685132649            0000000000    
DD19301958115    UT112001492013-2DC24CCABREJ-VASALL-MONIC2013121120131207000000000027000000000000000120000000000027120193028281449EFECTIVO    UT11200149828F  0000281449133000            0000000000    
DD19301958115    T2111101822013-2DC24CTRINID-PURIS -MESAC2013121120131207000000000025000000000000000120000000000025120111017385014EFECTIVO    T211110182PZAG  0008385014133125            0000000000    
DD19301958115    UT101039352013-2B134CSOCOLA-INGA D-SARA 2013121120131211000000000027000000000000000000000000000027000193026283673EFECTIVO    UT10103935826A  0000283673133250            0000000000    
DD19301958115    UT017002672013-2D224CESCOBA-AYALA -ERBER2013121120131207000000000022500000000000000120000000000022620111017386886EFECTIVO    UT01700267PZBA  0008386886133328            0000000000    
DD19301958115    UT101037262013-2C234CESPINO-ADRIAN-JOSE 2013121120131207000000000027000000000000000120000000000027120000041286276EFECTIVO    UT10103726041C  0000286276133611            0000000000    
DD19301958115    UT023000312013-2D824CATENCI-SULLCA-EDINS2013121120131207000000000022500000000000000120000000000022620111017390857EFECTIVO    UT02300031PZAA  0008390857133756            0000000000    
DD19301958115    UT101045932013-2B134CLOA   -GONZAL-JOEL 2013121120131130000000000027000000000000000330000000000027330000005300895EFECTIVO    UT10104593005F  0000300895135553            0000000000    
DD19301958115    UT032004812013-2D424CFLORES-CONGON-CARLO2013121120131207000000000022500000000000000120000000000022620111017410386EFECTIVO    UT03200481PZDA  0008410386140110            0000000000    
DD19301958115    UT101050552013-2D124CNORIEG-PALACI-ANA C2013121120131207000000000027000000000000000120000000000027120111017413832EFECTIVO    UT10105055PZCA  0008413832140530            0000000000    
DD19301958115    UT101029932013-2D224CRIVERA-CHAVEZ-BENNY2013121120131207000000000025000000000000000120000000000025120000004309039EFECTIVO    UT10102993ZLPA  0000309039140645            0000000000    
DD19301958115    UT101039542013-2C234CRAMIRE-OBREGO-NOEMI2013121120131207000000000027000000000000000120000000000027120111017417833EFECTIVO    UT10103954PZBB  0008417833141034            0000000000    
DD19301958115    UT101024792013-2D324CCRUZAD-MIGUEL-HANSL2013121120131207000000000025000000000000000120000000000025120111017419221EFECTIVO    UT10102479PZDA  0008419221141219            0000000000    
DD19301958115  UT12123201512013-2DC24CRODRIG-BAZAN -FLOR 2013121120131207000000000025000000000000000120000000000025120193063314957EFECTIVO  UT1212320151863H  0000314957141454            0000000000    
DD19301958115    T2101070772013-2D924CSALDAN-RUFINO-BEREN2013121120131207000000000025000000000000000120000000000025120000066315560EFECTIVO    T210107077066E  0000315560141542            0000000000    
DD19301958115    UT019003622013-2D224CCHIRME-YUCRA -MIRIA2013121120131207000000000022500000000000000120000000000022620533000320890EFECTIVO    UT01900362C38E  0000320890142256            0000000000    
DD19301958115    UT101018742013-2D424CSALDAN-ARELA -EMILI2013121120131207000000000025000000000000000120000000000025120111017428850EFECTIVO    UT10101874PZAA  0008428850142447            0000000000    
DD19301958115    UT028007412013-2B134CFIGUER-CARBAJ-DANTE2013121120131130000000000022500000000000000330000000000022830111017429801EFECTIVO    UT02800741PZAA  0008429801142605            0000000000    
DD19301958115    UT101037592013-2D224CRONCAL-SANCHE-YANIN2013121120131207000000000027000000000000000120000000000027120000005325379EFECTIVO    UT10103759005C  0000325379142857            0000000000    
DD19301958115    UT017001862013-2D324CHUAMAN-SALAZA-JHOAN2013121120131207000000000022500000000000000120000000000022620355006338003EFECTIVO    UT01700186RPHE  0000338003144538            0000000000    
DD19301958115    UT034000462013-2D514CVALDIV-QUIROZ-HAROL2013121120131110000000000022500000000000000930000000000023430111023448632EFECTIVO    UT03400046TBJ0  0008448632145050            0000000000    
DD19301958115    UT034000462013-2D524CVALDIV-QUIROZ-HAROL2013121120131207000000000022500000000000000120000000000022620111023448632EFECTIVO    UT03400046TBJ0  0008448632145050            0000000000    
DD19301958115    IT012005232013-2B445CYCAHUA-AHUANA-LLOSE2013121120131202000000000010900000000000000270000000000011170111017457257EFECTIVO    IT01200523PZBB  0008457257150215            0000000000    
DD19301958115    UT033002902013-2D324CZEVALL-HERRER-ELVIS2013121120131207000000000022500000000000000120000000000022620485000352546EFECTIVO    UT03300290C23C  0000352546150410            0000000000    
DD19301958115    UT101051142013-2D124CCORZO -HERNAN-GASTO2013121120131207000000000027000000000000000120000000000027120111017462413EFECTIVO    UT10105114PZAA  0008462413150854            0000000000    
DD19301958115    UT029001162013-2D324CDURAND-CURO  -ROSA 2013121120131207000000000022500000000000000120000000000022620305000359046EFECTIVO    UT02900116LCHG  0000359046151141            0000000000    
DD19301958115    T2102070882013-2D824CVALDIV-VALDAR-TANIA2013121120131207000000000025000000000000000120000000000025120000114363000EFECTIVO    T210207088114A  0000363000151615            0000000000    
DD19301958115    IT012006932013-2B245CVARGAS-RIOS  -MELIT2013121120131202000000000010900000000000000270000000000011170111017471933EFECTIVO    IT01200693PZBA  0008471933152044            0000000000    
DD19301958115    UT101023032013-2D324CHUERTA-YCOCHE-HELEN2013121120131207000000000025000000000000000120000000000025120111017474769EFECTIVO    UT10102303PZDD  0008474769152406            0000000000    
DD19301958115    UT019003072013-2C234CQUISPE-CANDIA-VICTO2013121120131207000000000022500000000000000120000000000022620533000371155EFECTIVO    UT01900307C38F  0000371155152543            0000000000    
DD19301958115    UT019002982013-2C234CRODRIG-CHOQUE-SONIA2013121120131207000000000022500000000000000120000000000022620533000371699EFECTIVO    UT01900298C38F  0000371699152618            0000000000    
DD19301958115    IT033008892013-2B435CSOUZA -SOTO  -ANDRE2013121120131102000000000010000000000000001170000000000011170485000372649EFECTIVO    IT03300889C23E  0000372649152716            0000000000    
DD19301958115  UT11103201742013-2D724CLUZON -VILLEG-MARCO2013121120131207000000000025000000000000000120000000000025120111017480882EFECTIVO  UT1110320174PZDA  0008480882153124            0000000000    
DD19301958115    IT033013722013-2B245CRIQUEL-SANCHE-GIAN 2013121120131202000000000010000000000000000270000000000010270485000383955EFECTIVO    IT03301372C23C  0000383955153817            0000000000    
DD19301958115    UT028001762013-2D524CCALIZA-MESTAS-PELE 2013121120131207000000000018900000000000000120000000000019020111017487583EFECTIVO    UT02800176PZDB  0008487583153911            0000000000    
DD19301958115    IT014009932013-2B235CHUAMAN-HUALLP-JHOME2013121120131102000000000010000000000000001170000000000011170111017487620EFECTIVO    IT01400993PZAA  0008487620153914            0000000000    
DD19301958115    IT014009932013-2B245CHUAMAN-HUALLP-JHOME2013121120131202000000000010000000000000000270000000000010270111017488537EFECTIVO    IT01400993PZAE  0008488537154015            0000000000    
DD19301958115    UT032010232013-2B134CFLORES-BACA  -GUSTA2013121120131130000000000022500000000000000330000000000022830215000392030EFECTIVO    UT03201023CCAI  0000392030154656            0000000000    
DD19301958115  UT11203204532013-2D624CRAMIRE-HUAMAN-MIGUE2013121120131207000000000025000000000000000120000000000025120193030396997EFECTIVO  UT1120320453830H  0000396997155213            0000000000    
DD19301958115    UT101002802013-2D524CROSALE-GALVEZ-HIRO 2013121120131207000000000025000000000000000120000000000025120000066401932EFECTIVO    UT10100280066E  0000401932155719            0000000000    
DD19301958115    UT101039422013-2C234CMORALE-LARRAN-CARLO2013121120131207000000000027000000000000000120000000000027120192005404973EFECTIVO    UT10103942605H  0000404973160027            0000000000    
DD19301958115    UT022008492013-2B124CESQUIV-MOSCOS-ROXAN2013121120131026000000000022500000000000001380000000000023880285003409742EFECTIVO    UT02200849DCUG  0000409742160518            0000000000    
DD19301958115    UT022008222013-2D124CACHAHU-POMALA-ALDO 2013121120131207000000000022500000000000000120000000000022620111017511443EFECTIVO    UT02200822PZDD  0008511443160548            0000000000    
DD19301958115    UT101023952013-2D324CGRANIZ-RAMON -LUZ M2013121120131207000000000025000000000000000120000000000025120000070412536EFECTIVO    UT10102395070A  0000412536160758            0000000000    
DD19301958115    UT101023962013-2D324CLOLI  -MAURIC-EVELI2013121120131207000000000025000000000000000120000000000025120000070413065EFECTIVO    UT10102396070A  0000413065160829            0000000000    
DD19301958115    UT101043792013-2D124CARRIET-JANAMP-IRMA 2013121120131207000000000027000000000000000120000000000027120111017515730EFECTIVO    UT10104379PZCG  0008515730161025            0000000000    
DD19301958115    UT112003812013-2D124CMEDINA-GALARZ-ROSAR2013121120131209000000000020000000000000000060000000000020060193043416230EFECTIVO    UT11200381843E  0000416230161123            0000000000    
DD19301958115    UT013005602013-2D124CAGUILA-PINTO -WILBE2013121120131207000000000022500000000000000120000000000022620111017518337EFECTIVO    UT01300560PZBB  0008518337161301            0000000000    
DD19301958115    UT023006252013-2D224CADASME-TORRES-JUAN 2013121120131207000000000022500000000000000120000000000022620111023518409EFECTIVO    UT02300625TBJ2  0008518409161305            0000000000    
DD19301958115    UT101045282013-2B124CVIZARR-BARAHO-OTTO 2013121120131026000000000027000000000000001380000000000028380000005420340EFECTIVO    UT10104528005G  0000420340161406            0000000000    
DD19301958115    UT101045282013-2B134CVIZARR-BARAHO-OTTO 2013121120131130000000000027000000000000000330000000000027330000005420340EFECTIVO    UT10104528005G  0000420340161406            0000000000    
DD19301958115    UT023006242013-2D224CCHAVEZ-VARGAS-ALEX 2013121120131207000000000022500000000000000120000000000022620111023521191EFECTIVO    UT02300624TBJ2  0008521191161554            0000000000    
DD19301958115    UT017000612013-2D624CRIOS  -MANTAR-LUIS 2013121120131207000000000022500000000000000120000000000022620111017522822EFECTIVO    UT01700061PZCA  0008522822161742            0000000000    
DD19301958115    IT012007252013-2B245CPIZANG-MELEND-ANITA2013121120131202000000000010900000000000000270000000000011170111017523314EFECTIVO    IT01200725PZBA  0008523314161813            0000000000    
DD19301958115    UT101042962013-2D124CHUARAC-ORE   -HELEN2013121120131207000000000027000000000000000120000000000027120000025426515EFECTIVO    UT10104296025D  0000426515161914            0000000000    
DD19301958115    UT101041412013-2D124CCASTIL-JAIME -HENRY2013121120131207000000000027000000000000000120000000000027120193049439738EFECTIVO    UT10104141849B  0000439738163123            0000000000    
DD19301958115    UT101049302013-2D124CGOMEZ -LLACTA-ELIZA2013121120131207000000000027000000000000000120000000000027120111017542319EFECTIVO    UT10104930PZDA  0008542319163725            0000000000    
DD19301958115    UT023005572013-2C234CMUNIZ -VALDIV-LIZET2013121120131207000000000022500000000000000120000000000022620540000448065EFECTIVO    UT02300557TACF  0000448065163810            0000000000    
DD19301958115    UT101049742013-2D124CSANCHE-QUEZAD-HARRY2013121120131207000000000027000000000000000120000000000027120000089449652EFECTIVO    UT10104974089E  0000449652163934            0000000000    
DD19301958115    IT012006262013-2B345CSALAZA-MAGUIN-NELLY2013121120131204000000000010900000000000000210000000000011110480001451849EFECTIVO    IT012006267JUG  0000451849164123            0000000000    
DD19301958115    UT101041122013-2D124CTELLO -OLIVER-CATAL2013121120131207000000000027000000000000000120000000000027120111017547338EFECTIVO    UT10104112PZCA  0008547338164233            0000000000    
DD19301958115    UT023006712013-2B134CYAIPEN-SALDAN-KAREL2013121120131130000000000022500000000000000330000000000022830111017548326EFECTIVO    UT02300671PZCA  0008548326164331            0000000000    
DD19301958115    UT022004092013-2D224CTORRES-LEON  -MARIB2013121120131209000000000022500000000000000060000000000022560111017549565EFECTIVO    UT02200409PZBB  0008549565164443            0000000000    
DD19301958115    UT101039802013-2D224CGUZMAN-LOYOLA-MARIA2013121120131207000000000027000000000000000120000000000027120111017558192EFECTIVO    UT10103980PZDA  0008558192165341            0000000000    
DD19301958115    UT028006652013-2D224CCONDOR-ROJAS -OMAR 2013121120131207000000000022500000000000000120000000000022620111017559585EFECTIVO    UT02800665PZBE  0008559585165500            0000000000    
DD19301958115    IT014009492013-2B245CJUNO  -CANDIO-ROSME2013121120131202000000000010000000000000000270000000000010270350000469093EFECTIVO    IT01400949C31C  0000469093165606            0000000000    
DD19301958115    UT013005402013-2B134CFLORES-MONROY-ROBER2013121120131130000000000022500000000000000330000000000022830405003469736EFECTIVO    UT01300540SROH  0000469736165639            0000000000    
DD19301958115    UT034000442013-2D524CPACHEC-JIMENE-DAVID2013121120131207000000000022500000000000000120000000000022620335000471905EFECTIVO    UT03400044LHHE  0000471905165825            0000000000    
DD19301958115    IT026007792013-2B245CLLANCA-FLORES-MERIS2013121120131202000000000010000000000000000270000000000010270111017564613EFECTIVO    IT02600779PZAA  0008564613165932            0000000000    
DD19301958115    UT101026902013-2D324CLOMAS -NUNEZ -LLIRI2013121120131207000000000025000000000000000120000000000025120111017564766EFECTIVO    UT10102690PZDI  0008564766165940            0000000000    
DD19301958115  UT11103201142013-2D724CSAAVED-LOZANO-ERIKA2013121120131207000000000025000000000000000120000000000025120000048474542EFECTIVO  UT1110320114048A  0000474542170045            0000000000    
DD19301958115    IT016001482013-2B445CHUARI -ALVARE-JENIF2013121120131202000000000010000000000000000270000000000010270255001480567EFECTIVO    IT01600148AI1B  0000480567170617            0000000000    
DD19301958115    UT028004992013-2D224CNEIRA -SANCHE-GUIDO2013121120131207000000000022500000000000000120000000000022620111017576013EFECTIVO    UT02800499PZDB  0008576013171009            0000000000    
DD19301958115    UT022005052013-2D324CYUPANQ-MUNOZ -FREDY2013121120131207000000000022500000000000000120000000000022620111017576407EFECTIVO    UT02200505PZAA  0008576407171030            0000000000    
DD19301958115    UT023006932013-2D124CCUTIPA-CORI  -ANA M2013121120131207000000000022500000000000000120000000000022620111017577639EFECTIVO    UT02300693PZCB  0008577639171135            0000000000    
DD19301958115    UT023004242013-2D314CLIMACH-NINAJA-IRMIR2013121120131110000000000022500000000000000930000000000023430111017578138EFECTIVO    UT02300424PZAC  0008578138171203            0000000000    
DD19301958115    UT012000342013-2D924CPEREZ -GONZAL-BESSY2013121120131207000000000022500000000000000120000000000022620480001489051EFECTIVO    UT012000347JUA  0000489051171305            0000000000    
DD19301958115    UT101031452013-2D224CCABELL-HUAMAN-RAUL 2013121120131207000000000027000000000000000120000000000027120111017584258EFECTIVO    UT10103145PZDH  0008584258171735            0000000000    
DD19301958115    UT101027862013-2D324CLACHAP-CORREA-KAROL2013121120131211000000000025000000000000000000000000000025000111017586023EFECTIVO    UT10102786PZAC  0008586023171910            0000000000    
DD19301958115    UT003002172013-2D324CABAL  -SILVA -RICHA2013121120131207000000000022500000000000000120000000000022620111017588465EFECTIVO    UT00300217PZDB  0008588465172129            0000000000    
DD19301958115    UT101017932013-2DC24CGONZAL-BARRER-RAFAE2013121120131207000000000025000000000000000120000000000025120193001500317EFECTIVO    UT10101793BJSB  0000500317172213            0000000000    
DD19301958115    IT003000722013-2B435CGERONI-QUILLL- ABEL2013121120131102000000000010000000000000001170000000000011170370000501891EFECTIVO    IT00300072C19G  0000501891172324            0000000000    
DD19301958115    UT029001362013-2D224CBOCANG-PACHEC-GIOVA2013121120131207000000000022500000000000000120000000000022620415000503065EFECTIVO    UT02900136LAME  0000503065172412            0000000000    
DD19301958115    IT018002662013-2B245CRODRIG-FERNAN-NIMIA2013121120131202000000000010000000000000000270000000000010270245000509282EFECTIVO    IT01800266VADE  0000509282172904            0000000000    
DD19301958115  UT11203203742013-2D624CGARCIA-TAIPE -CRIST2013121120131207000000000025000000000000000120000000000025120111017597560EFECTIVO  UT1120320374PZDA  0008597560172929            0000000000    
DD19301958115    UT101024092013-2D324COLIVER-FERNAN-YOEL 2013121120131207000000000025000000000000000120000000000025120000038512952EFECTIVO    UT10102409038E  0000512952173324            0000000000    
DD19301958115    UT022003972013-2D424CCARRAN-CIEZA -GEREM2013121120131207000000000022500000000000000120000000000022620111017603538EFECTIVO    UT02200397PZCF  0008603538173443            0000000000    
DD19301958115    IT010004202013-2B435CPOZO  -TOGAS -SUSAN2013121120131102000000000010000000000000001170000000000011170575001519077EFECTIVO    IT01000420V01C  0000519077173734            0000000000    
DD19301958115    UT022004312013-2D324CCORI  -DEL MA-CHRIS2013121120131207000000000022500000000000000120000000000022620111017613691EFECTIVO    UT02200431PZAC  0008613691174329            0000000000    
DD19301958115    UT101038272013-2C234CMEDINA-COILA -DIANA2013121120131207000000000027000000000000000120000000000027120192029528727EFECTIVO    UT10103827629J  0000528727174455            0000000000    
DD19301958115    UT011000362013-2D524CHUASHU-PEREZ -NILTO2013121120131207000000000022500000000000000120000000000022620111017615437EFECTIVO    UT01100036PZDA  0008615437174458            0000000000    
DD19301958115    UT017001342013-2D324CCONDE -RIVERA-GADY 2013121120131207000000000022500000000000000120000000000022620111017617387EFECTIVO    UT01700134PZAC  0008617387174638            0000000000    
DD19301958115    UT026000482013-2D524CRODRIG-ALTAMI-HUMBE2013121120131207000000000022500000000000000120000000000022620390001531430EFECTIVO    UT02600048Q01A  0000531430174708            0000000000    
DD19301958115    UT013000802013-2D624CROQUE -TICONA-MARIS2013121120131207000000000022500000000000000120000000000022620111017618679EFECTIVO    UT01300080PZBF  0008618679174745            0000000000    
DD19301958115    UT101014762013-2D424CMONTOY-GARCIA-JOSE 2013121120131207000000000025000000000000000120000000000025120111017622723EFECTIVO    UT10101476PZAE  0008622723175114            0000000000    
DD19301958115    IT010001012013-2B625CDIOS  -ROSILL-ROXAN2013121120131004000000000010000000000000002040000000000012040575000541417EFECTIVO    IT01000101CCMG  0000541417175447            0000000000    
DD19301958115    UT028005802013-2C234CQUISPE-ASCENC-JHONA2013121120131207000000000022500000000000000120000000000022620495000542524EFECTIVO    UT02800580CCWF  0000542524175538            0000000000    
DD19301958115    UT032007252013-2D324CCORNEJ-LAZO  -KARIN2013121120131207000000000022500000000000000120000000000022620111017627852EFECTIVO    UT03200725PZDC  0008627852175542            0000000000    
DD19301958115    UT032007262013-2D324CHUACHO-GUTIER-LOURD2013121120131207000000000022500000000000000120000000000022620111017630220EFECTIVO    UT03200726PZDA  0008630220175743            0000000000    
DD19301958115    IT003002072013-2B245CYOSHID-GONZAL-GRACI2013121120131202000000000010000000000000000270000000000010270111017631648EFECTIVO    IT00300207PZBA  0008631648175855            0000000000    
DD19301958115    UT041000242013-2C224CPANCLA-MAYDAN-YANIN2013121120131203000000000022500000000000000240000000000022740111017636988EFECTIVO    UT04100024PZBC  0008636988180344            0000000000    
DD19301958115    T1101150942013-2DC24CMICHEL-FARFAN-IVETT2013121120131207000000000027000000000000000120000000000027120111017639794EFECTIVO    T110115094PZAF  0008639794180605            0000000000    
DD19301958115    IT014005662013-2B445CCASTRO-CCENCH-FELIX2013121120131202000000000010000000000000000270000000000010270350000556944EFECTIVO    IT01400566C31E  0000556944180825            0000000000    
DD19301958115    UT101045052013-2B134CREGALA-TORRES-ESTHE2013121120131130000000000027000000000000000330000000000027330111017644702EFECTIVO    UT10104505PZAE  0008644702181013            0000000000    
DD19301958115    IT016001682013-2B425CUTORUM-QUISPE-ROCIO2013121120131004000000000010000000000000002040000000000012040255001560102EFECTIVO    IT01600168AI1B  0000560102181133            0000000000    
DD19301958115    IT016001682013-2B435CUTORUM-QUISPE-ROCIO2013121120131102000000000010000000000000001170000000000011170255001560102EFECTIVO    IT01600168AI1B  0000560102181133            0000000000    
DD19301958115    UT011002232013-2D424CFLORES-HOSPIN-LIVIO2013121120131207000000000022500000000000000120000000000022620111017654517EFECTIVO    UT01100223PZDB  0008654517181831            0000000000    
DD19301958115    UT032008102013-2C234CPALOMI-APAZA -JENNY2013121120131207000000000022500000000000000120000000000022620111017660202EFECTIVO    UT03200810PZDA  0008660202182321            0000000000    
DD19301958115    UT028004262013-2D324CQUISPE-COILA -CARLO2013121120131207000000000022500000000000000120000000000022620111017671976EFECTIVO    UT02800426PZDC  0008671976183310            0000000000    
DD19301958115  UT11103201912013-2D724CAVENSU-AYALA -DIANA2013121120131207000000000025000000000000000120000000000025120111017674221EFECTIVO  UT1110320191PZBB  0008674221183505            0000000000    
DD19301958115    UT023006952013-2D124CMENDOZ-ORDONE-DORIS2013121120131207000000000022500000000000000120000000000022620111017675433EFECTIVO    UT02300695PZAA  0008675433183607            0000000000    
DD19301958115    IT012000722013-2B645CYUMBAT-ARMAS -EMILI2013121120131202000000000010900000000000000270000000000011170111017682279EFECTIVO    IT01200072PZBD  0008682279184206            0000000000    
DD19301958115    UT013000712013-2D624CCACHIC-ARUCUT-PEDRO2013121120131207000000000012500000000000000120000000000012620111017684467EFECTIVO    UT01300071PZBA  0008684467184353            0000000000    
DD19301958115    IT007004282013-2B435CGUEVAR-DAVILA-JESUS2013121120131102000000000010000000000000001170000000000011170111017685482EFECTIVO    IT00700428PZAA  0008685482184445            0000000000    
DD19301958115    UT022003322013-2D424CHILARE-JAVIER-JUAN 2013121120131207000000000021800000000000000120000000000021920111017701490EFECTIVO    UT02200332PZBF  0008701490185819            0000000000    
DD19301958115  UT12123202242013-2DC24CPALOMI-CABALL-ALFRE2013121120131210000000000025000000000000000030000000000025030111023726018EFECTIVO  UT1212320224TBX0  0009726018191958            0000000000    
DD19301958115    IT003001622013-2B245CFERNAN-GOMEZ -ELVA 2013121120131202000000000010000000000000000270000000000010270111017737584EFECTIVO    IT00300162PZDB  0009737584193030            0000000000    
DD19301958115    IT035002802013-2A425CSANCHE-NUNEZ -MARY 2013121120131004000000000010000000000000002040000000000012040111017739324EFECTIVO    IT03500280PZDC  0009739324193206            0000000000    
DD19301958115    UT112001882013-2C234CCORDOV-ROMERO-MARCO2013121120131207000000000027000000000000000120000000000027120111017747003EFECTIVO    UT11200188PZBC  0009747003193925            0000000000    
DD19301958115    UT033002982013-2D314CAYMARA-ANCALL-AGUST2013121120131110000000000022500000000000000930000000000023430111017747099EFECTIVO    UT03300298PZDA  0009747099193930            0000000000    
DD19301958115    UT101050482013-2D124CAREVAL-COLLAN-RICAR2013121120131207000000000027000000000000000120000000000027120111017779176EFECTIVO    UT10105048PZBA  0009779176201220            0000000000    
DD19301958115    IT007007492013-2B245COLEA  -MAZA  -JHONA2013121120131202000000000010000000000000000270000000000010270111017784495EFECTIVO    IT00700749PZDB  0009784495201828            0000000000    
DD19301958115    IT023005682013-2B241CSHUNA -SINARA-MERSI2013121120131202000000000010900000000000000270000000000011170111017785934EFECTIVO    IT02300568PZAB  0009785934202007            0000000000    
DD19301958115    IT023006952013-2C125CCUENTA-CCUNO -EDITH2013121120131203000000000010900000000000000240000000000011140111017797126EFECTIVO    IT02300695PZAE  0009797126203407            0000000000    
DD19301958115    IT034000852013-2B435CCORDOV-BARETO-GLORI2013121120131102000000000010000000000000001170000000000011170111017802902EFECTIVO    IT03400085PZDF  0009802902204203            0000000000    
DD19301958115    UT101042532013-2D124CBRICEN-ZACARI-JULIO2013121020131207000000000027000000000000000090000000000027090111017000427EFECTIVO    UT10104253PZBB  0009000427204633            0000000000    
DD19301958115    UT101014352013-2D424CJIMENE-ANCCO -CARME2013121020131207000000000025000000000000000090000000000025090111017002320EFECTIVO    UT10101435PZDF  0009002320204903            0000000000    
DD19301958115    UT101041522013-2DC24CCCAPAT-SUMA  -LUZ N2013121020131207000000000027000000000000000090000000000027090111017007453EFECTIVO    UT10104152PZAA  0009007453205702            0000000000    
DD19301958115    UT101042072013-2D124CTORRES-BRACAM-FANNY2013121020131207000000000027000000000000000090000000000027090111017011472EFECTIVO    UT10104207PZAB  0009011472210351            0000000000    
DD19301958115    IT012008262013-2B245CMELEND-SAAVED-SULLY2013121020131202000000000010900000000000000240000000000011140111017016961EFECTIVO    IT01200826PZCA  0009016961211345            0000000000    
DD19301958115    UT010000252013-2D824CZURITA-SAYAGO-ESTEL2013121020131207000000000022500000000000000090000000000022590111017020667EFECTIVO    UT01000025PZDB  0009020667212044            0000000000    
DD19301958115    UT022000952013-2D924CJARAMI-GONZAL-LYS L2013121020131207000000000021700000000000000090000000000021790111023025633EFECTIVO    UT02200095TBK5  0009025633213028            0000000000    
DD19301958115    UT101038022013-2C224CGARAY -HUARAC-ANA F2013121020131109000000000027000000000000000930000000000027930111023025829EFECTIVO    UT10103802TBX0  0009025829213053            0000000000    
DD19301958115    UT101038022013-2C234CGARAY -HUARAC-ANA F2013121020131207000000000027000000000000000090000000000027090111023025829EFECTIVO    UT10103802TBX0  0009025829213053            0000000000    
DD19301958115    UT112002342013-2D124CCARPIO-PEREIR-SANDR2013121020131207000000000027000000000000000090000000000027090111023046537EFECTIVO    UT11200234TBK4  0009046537222557            0000000000    
