CC19301958115C201312070000002950000000069575802730T0KL02163002CP0000                                                                                                                                                                                      
DD19301958115    UT101035332013-2D224CHEADRI-OSTROV-EVELY2013120720131207000000000027000000000000000000000000000027000111023098682EFECTIVO    UT10103533    IB          080628            0000000000                     08098682                         
DD19301958115    UT017002912013-2D124CRAMOS -LAZARO-SHELL2013120720131207000000000022500000000000000000000000000022500111017105302EFECTIVO    UT01700291    PZ          082411            0000000000                     08105302                         
DD19301958115    UT101034382013-2D224CPEREZ -HUAMAN-LARRY2013120720131207000000000027000000000000000000000000000027000111017118970EFECTIVO    UT10103438    PZ          085144            0000000000                     08118970                         
DD19301958115    UT101050772013-2D124CGONZAL-LLAJA -MARIE2013120720131207000000000027000000000000000000000000000027000000080011284EFECTIVO    UT10105077080CFI          090134            0000000000                     00011284                         
DD19301958115    UT101027162013-2D324CLOZANO-HUETT -ANGEL2013120720131207000000000025000000000000000000000000000025000000084011973EFECTIVO    UT10102716084FFI          090253            0000000000                     00011973                         
DD19301958115    UT101012312013-2D524CBURGA -ALIAGA-ANDI 2013120720131207000000000025000000000000000000000000000025000305007012160EFECTIVO    UT10101231MMDEFI          090311            0000000000                     00012160                         
DD19301958115    UT101050632013-2D124CBONILL-PAREDE-ARTUR2013120720131207000000000027000000000000000000000000000027000000066012889EFECTIVO    UT10105063066DFI          090425            0000000000                     00012889                         
DD19301958115    UT101032592013-2DC24CMORE  -VASQUE-EDILB2013120720131207000000000027000000000000000000000000000027000193074014621EFECTIVO    UT10103259874DFI          090711            0000000000                     00014621                         
DD19301958115    UT101040632013-2D124CDE LA -CRIOLL-JHOSE2013120720131207000000000027000000000000000000000000000027000000030014790EFECTIVO    UT10104063030DFI          090724            0000000000                     00014790                         
DD19301958115    UT101038922013-2C234CMELGAR-POMA  -FERNA2013120720131207000000000027000000000000000000000000000027000193043016865EFECTIVO    UT10103892843BFI          091014            0000000000                     00016865                         
DD19301958115    IT010007062013-2B225CGARCIA-ADRIAN-NASAR2013120720131004000000000010000000000000001920000000000011920575000020743EFECTIVO    IT01000706CCMBFI          091537            0000000000                     00020743                         
DD19301958115    IT010007062013-2B235CGARCIA-ADRIAN-NASAR2013120720131102000000000010000000000000001050000000000011050575000020743EFECTIVO    IT01000706CCMBFI          091537            0000000000                     00020743                         
DD19301958115    UT101035112013-2D224CCONTRE-RAMIRE-JOSE 2013120720131207000000000027000000000000000000000000000027000194019022452EFECTIVO    UT10103511719AFI          091751            0000000000                     00022452                         
DD19301958115    UT023001562013-2D524CMAMANI-GALLEG-MONIC2013120720131207000000000022500000000000000000000000000022500111017138144EFECTIVO    UT02300156    PZ          091818            0000000000                     08138144                         
DD19301958115  UT13121110142013-2D224CCALDER-DIAZ  -KARIM2013120720131207000000000027000000000000000000000000000027000111017139181EFECTIVO  UT1312111014    PZ          091930            0000000000                     08139181                         
DD19301958115    T2102150122013-2D724CBENANC-BORDA -ALEX 2013120720131207000000000025000000000000000000000000000025000193009024487EFECTIVO    T210215012809BFI          092032            0000000000                     00024487                         
DD19301958115    UT028004962013-2C234CQUISPE-MAMANI-IRENE2013120720131207000000000022500000000000000000000000000022500495000024505EFECTIVO    UT02800496CCWJFI          092034            0000000000                     00024505                         
DD19301958115    UT101009662013-2D524CLOPEZ -BLASS -ALFRE2013120720131207000000000023500000000000000000000000000023500000084025797EFECTIVO    UT10100966084CFI          092213            0000000000                     00025797                         
DD19301958115    UT101017902013-2D424CQUIJAN-CHIRIN-ANGEL2013120720131207000000000025000000000000000000000000000025000000052027016EFECTIVO    UT10101790STABFI          092354            0000000000                     00027016                         
DD19301958115    UT101031262013-2D224CCARDEN-DIAZ  -MARIA2013120720131207000000000027000000000000000000000000000027000000037027295EFECTIVO    UT10103126037BFI          092417            0000000000                     00027295                         
DD19301958115    IT012008442013-2B245CGAVIRI-TUTUSI-MISHE2013120720131202000000000010900000000000000150000000000011050111017143522EFECTIVO    IT01200844    PZ          092424            0000000000                     08143522                         
DD19301958115    UT013002492013-2D324CPALO  -CHAVEZ-OLIVE2013120720131207000000000021200000000000000000000000000021200111017144396EFECTIVO    UT01300249    PZ          092519            0000000000                     08144396                         
DD19301958115    UT023006782013-2D124CGONZAL-MAQUER-LIDIA2013120720131207000000000022500000000000000000000000000022500111017144732EFECTIVO    UT02300678    PZ          092540            0000000000                     08144732                         
DD19301958115    UT101013692013-2D424CCHAVEZ-KANASH-ANA S2013120720131207000000000025000000000000000000000000000025000000066028862EFECTIVO    UT10101369066CFI          092609            0000000000                     00028862                         
DD19301958115  UT11103204112013-2D714CORELLA-ZURITA-LAURA2013120720131110000000000025000000000000000810000000000025810000032028858EFECTIVO  UT1110320411032FFI          092609            0000000000                     00028858                         
DD19301958115    UT101013702013-2D424CCHAVEZ-KANASH-IVAN 2013120720131207000000000025000000000000000000000000000025000000066029217EFECTIVO    UT10101370066CFI          092634            0000000000                     00029217                         
DD19301958115    UT101013712013-2D424CCHAVEZ-KANASH-MOISE2013120720131207000000000025000000000000000000000000000025000000066029581EFECTIVO    UT10101371066CFI          092658            0000000000                     00029581                         
DD19301958115    UT033003022013-2D314CTOLENT-HERRER-KARIN2013120720131110000000000022500000000000000810000000000023310485000029645EFECTIVO    UT03300302C23AFI          092703            0000000000                     00029645                         
DD19301958115    UT101050542013-2D124CMASIAS-GUARDI-VICTO2013120720131207000000000027000000000000000000000000000027000193008029750EFECTIVO    UT10105054808GFI          092709            0000000000                     00029750                         
DD19301958115    UT028002972013-2D424CARIAS -FLORES-WALTE2013120720131207000000000022500000000000000000000000000022500495000030012EFECTIVO    UT02800297CCWBFI          092726            0000000000                     00030012                         
DD19301958115    UT101016412013-2D424CCHAVEZ-KANASH-FABIO2013120720131207000000000025000000000000000000000000000025000000066030010EFECTIVO    UT10101641066CFI          092726            0000000000                     00030010                         
DD19301958115    IT014011052013-2B245CALARCO-POMA  -CRIST2013120720131202000000000010000000000000000150000000000010150350000030355EFECTIVO    IT01401105C31DFI          092751            0000000000                     00030355                         
DD19301958115    UT101014362013-2D424CKOBAYA-ROJAS -MARIA2013120720131207000000000025000000000000000000000000000025000000066030456EFECTIVO    UT10101436066CFI          092759            0000000000                     00030456                         
DD19301958115    UT029000892013-2D424CSIGUEN-TENORI-FLOR 2013120720131207000000000021300000000000000000000000000021300305001031286EFECTIVO    UT02900089PRGAFI          092904            0000000000                     00031286                         
DD19301958115    UT101019012013-2D424CTALLED-BENITE-LINCO2013120720131207000000000025000000000000000000000000000025000545000031872EFECTIVO    UT10101901CCVDFI          092944            0000000000                     00031872                         
DD19301958115    UT013001852013-2D424CSALCED-LUQUE -ALEX 2013120720131207000000000022500000000000000000000000000022500111017150358EFECTIVO    UT01300185    PZ          093142            0000000000                     08150358                         
DD19301958115    UT026001322013-2D124CALARCO-CHONG -NANCY2013120720131207000000000022500000000000000000000000000022500390003035124EFECTIVO    UT02600132ITAEFI          093331            0000000000                     00035124                         
DD19301958115    UT101035602013-2C234CLOPEZ -VALDIV-MONIC2013120720131207000000000027000000000000000000000000000027000000103036052EFECTIVO    UT10103560103EFI          093436            0000000000                     00036052                         
DD19301958115    UT101013842013-2D424CCONTRE-VENTO -RODOL2013120720131207000000000025000000000000000000000000000025000000044036741EFECTIVO    UT10101384044BFI          093522            0000000000                     00036741                         
DD19301958115    UT022007922013-2B134CTAPARA-MACUA -OCTAV2013120720131130000000000022500000000000000210000000000022710111017154177EFECTIVO    UT02200792    PZ          093538            0000000000                     08154177                         
DD19301958115    UT014001052013-2DC24CLLAMOC-RAMOS -WENSS2013120720131207000000000022500000000000000000000000000022500350000037300EFECTIVO    UT01400105C31DFI          093559            0000000000                     00037300                         
DD19301958115    IT034001212013-2B225CISUIZA-TUANAM-DENIL2013120720131004000000000010000000000000001920000000000011920335000038324EFECTIVO    IT03400121LHHBFI          093707            0000000000                     00038324                         
DD19301958115    IT034001212013-2B235CISUIZA-TUANAM-DENIL2013120720131102000000000010000000000000001050000000000011050335000038324EFECTIVO    IT03400121LHHBFI          093707            0000000000                     00038324                         
DD19301958115    UT101045892013-2B134CDIAZ  -ACEVED-JHOSE2013120720131130000000000027000000000000000210000000000027210255000039934EFECTIVO    UT10104589C17CFI          093853            0000000000                     00039934                         
DD19301958115    UT021001172013-2D424CVERGAR-PENA  -MARIN2013120720131207000000000022500000000000000000000000000022500380000040479EFECTIVO    UT02100117IKAIFI          093930            0000000000                     00040479                         
DD19301958115    UT023006822013-2D124CBARRIO-QUINTA-OSCAR2013120720131207000000000022500000000000000000000000000022500111017160116EFECTIVO    UT02300682    PZ          094135            0000000000                     08160116                         
DD19301958115    UT109000042013-2D124CMORANT-DE QUE-MARIA2013120720131207000000000027000000000000000000000000000027000000063044891EFECTIVO    UT10900004063BFI          094408            0000000000                     00044891                         
DD19301958115    UT034001202013-2C234CVALLE -PANDO -ANGEL2013120720131207000000000022500000000000000000000000000022500335000046020EFECTIVO    UT03400120HCHAFI          094520            0000000000                     00046020                         
DD19301958115    UT022001122013-2D424CQUISPE-QQUERO-YEFER2013120720131207000000000022500000000000000000000000000022500285000046901EFECTIVO    UT02200112LEZDFI          094610            0000000000                     00046901                         
DD19301958115    UT101050172013-2D124CMILUSS-GARCIA-JUAN 2013120720131207000000000027000000000000000000000000000027000194030048454EFECTIVO    UT10105017730AFI          094746            0000000000                     00048454                         
DD19301958115    UT106001942013-2D224CLOSTAU-QUISPE-ANDRE2013120720131207000000000027000000000000000000000000000027000255001049825EFECTIVO    UT10600194AI1BFI          094914            0000000000                     00049825                         
DD19301958115    UT010000572013-2D424CRAMIRE-VITE  -YULIS2013120720131207000000000022500000000000000000000000000022500575000050221EFECTIVO    UT01000057CCMHFI          094937            0000000000                     00050221                         
DD19301958115    UT101046812013-2B124CCHATE -HUACAU-ELENA2013120720131026000000000027000000000000001260000000000028260000096051467EFECTIVO    UT10104681096DFI          095053            0000000000                     00051467                         
DD19301958115  UT11103201052013-2DC24CSOTO  -DE LA -AMALI2013120720131207000000000025000000000000000000000000000025000111017170762EFECTIVO  UT1110320105    PZ          095149            0000000000                     08170762                         
DD19301958115  UT12123202162013-2D524CTRIGOS-GUEVAR-JUAN 2013120720131207000000000025000000000000000000000000000025000193080052647EFECTIVO  UT1212320216880BFI          095214            0000000000                     00052647                         
DD19301958115    UT028004902013-2C234CCHACHA-APAZA -VIDAL2013120720131207000000000022500000000000000000000000000022500111017172954EFECTIVO    UT02800490    PZ          095357            0000000000                     08172954                         
DD19301958115    UT023006802013-2D124CMAMANI-VARGAS-DANIE2013120720131207000000000022500000000000000000000000000022500540000054808EFECTIVO    UT02300680TACAFI          095428            0000000000                     00054808                         
DD19301958115    UT101051502013-2D124CMELCHO-PODENC-LEVIN2013120720131207000000000027000000000000000000000000000027000000132054947EFECTIVO    UT10105150132CFI          095437            0000000000                     00054947                         
DD19301958115    UT101030952013-2D224CQUIJAD-AGUILA-SAUL 2013120720131207000000000027000000000000000000000000000027000111017174527EFECTIVO    UT10103095    PZ          095523            0000000000                     08174527                         
DD19301958115    UT023002662013-2D524CJIMENE-NAVARR-ROXAN2013120720131207000000000022500000000000000000000000000022500430000056141EFECTIVO    UT02300266CC8AFI          095552            0000000000                     00056141                         
DD19301958115    UT103000192013-2D124CCAMARG-GUERRE-PAMEL2013120720131207000000000027000000000000000000000000000027000193003061401EFECTIVO    UT10300019CHOBFI          100117            0000000000                     00061401                         
DD19301958115    UT022005702013-2C234CHUAMAN-CHINO -LUZ M2013120720131207000000000022500000000000000000000000000022500285006062504EFECTIVO    UT02200570Z06HFI          100241            0000000000                     00062504                         
DD19301958115    UT101023142013-2D324CMACCHI-MAYTA -GRACE2013120720131207000000000025000000000000000000000000000025000111017183317EFECTIVO    UT10102314    PZ          100322            0000000000                     08183317                         
DD19301958115    UT101030842013-2D224CBERMUD-CASTRO-JUAN 2013120720131207000000000027000000000000000000000000000027000111017186171EFECTIVO    UT10103084    PZ          100558            0000000000                     08186171                         
DD19301958115    UT101026432013-2D324CCORA  -MAMANI-EDGAR2013120720131207000000000025000000000000000000000000000025000111017186824EFECTIVO    UT10102643    PZ          100630            0000000000                     08186824                         
DD19301958115    IT010007672013-2B245CGUERRE-TRONCO-FRESC2013120720131202000000000010000000000000000150000000000010150575000068128EFECTIVO    IT01000767CCMIFI          100901            0000000000                     00068128                         
DD19301958115    IT022002952013-2C124CPEREZ -BORDA -ROBER2013120720131204000000000010000000000000000090000000000010090200000069075EFECTIVO    IT02200295C25BFI          101001            0000000000                     00069075                         
DD19301958115    IT022002962013-2C124CAYME  -CIPRIA-ANABE2013120720131204000000000010000000000000000090000000000010090200000069689EFECTIVO    IT02200296C25BFI          101052            0000000000                     00069689                         
DD19301958115    UT101040702013-2D124CMONROE-REYES -MARIL2013120720131207000000000027000000000000000000000000000027000000044070160EFECTIVO    UT10104070044FFI          101132            0000000000                     00070160                         
DD19301958115    UT012001782013-2D224CMURRIE-NUVE  -ELVIS2013120720131207000000000022500000000000000000000000000022500111017193249EFECTIVO    UT01200178    PZ          101207            0000000000                     08193249                         
DD19301958115    UT101042942013-2D124CCHAVEZ-ESCALA-SAMAN2013120720131207000000000027000000000000000000000000000027000111017194504EFECTIVO    UT10104294    PZ          101311            0000000000                     08194504                         
DD19301958115    UT101050322013-2D124CCUYUBA-PURIS -JUAN 2013120720131207000000000027000000000000000000000000000027000420000071607EFECTIVO    UT10105032CC9CFI          101317            0000000000                     00071607                         
DD19301958115  UT11203200972013-2D614CBANCES-ARRASC-LIDIA2013120720131110000000000025000000000000000810000000000025810111017194856EFECTIVO  UT1120320097    PZ          101330            0000000000                     08194856                         
DD19301958115    UT101029132013-2D224CSANCHE-VASQUE-WILDE2013120720131207000000000025000000000000000000000000000025000000089072616EFECTIVO    UT10102913089DFI          101418            0000000000                     00072616                         
DD19301958115    UT019002962013-2C234CPOZO  -CONCHA-RUTH 2013120720131207000000000022500000000000000000000000000022500533000073374EFECTIVO    UT01900296C38EFI          101508            0000000000                     00073374                         
DD19301958115    UT101036222013-2C234CDIAZ  -GUEVAR-JUAN 2013120720131207000000000027000000000000000000000000000027000111017200099EFECTIVO    UT10103622    PZ          101804            0000000000                     08200099                         
DD19301958115  UT11203200282013-2D614CTRUJIL-PINTO -CLAUD2013120720131110000000000025000000000000000810000000000025810000066076676EFECTIVO  UT1120320028066EFI          101856            0000000000                     00076676                         
DD19301958115    UT021000262013-2D924CCAHUAP-SOLAR -FIDEL2013120720131207000000000022500000000000000000000000000022500315000076899EFECTIVO    UT02100026LECHFI          101910            0000000000                     00076899                         
DD19301958115    UT106001432013-2D324CNALVAR-DEL CA-HUMBE2013120720131207000000000025000000000000000000000000000025000111017205184EFECTIVO    UT10600143    PZ          102223            0000000000                     08205184                         
DD19301958115    UT101051032013-2D124CSUAREZ-MORENO-JENNY2013120720131207000000000027000000000000000000000000000027000111017208680EFECTIVO    UT10105103    PZ          102519            0000000000                     08208680                         
DD19301958115    UT116000282013-2C234CPITTA -NAVARR-MARIA2013120720131207000000000027000000000000000000000000000027000194016082973EFECTIVO    UT11600028716FFI          102530            0000000000                     00082973                         
DD19301958115    IT023005702013-2B255CCHURA -COLQUE-CELIA2013120720140102000000000010900000000000000000000000000010900540004084453EFECTIVO    IT02300570AALBFI          102652            0000000000                     00084453                         
DD19301958115    UT101032792013-2D224CIPANAQ-FERNAN-JUANA2013120720131207000000000027000000000000000000000000000027000111017211110EFECTIVO    UT10103279    PZ          102724            0000000000                     08211110                         
DD19301958115    UT101032802013-2D224CALFARO-IPANAQ-CARLO2013120720131207000000000027000000000000000000000000000027000111017212039EFECTIVO    UT10103280    PZ          102810            0000000000                     08212039                         
DD19301958115    UT101049872013-2D124CGUEVAR-DIAZ  -JENNI2013120720131207000000000027000000000000000000000000000027000193011087138EFECTIVO    UT10104987JOCEFI          102840            0000000000                     00087138                         
DD19301958115    UT023007172013-2D124CCHOQUE-MAMANI-MARIA2013120720131207000000000022500000000000000000000000000022500540000088508EFECTIVO    UT02300717TACCFI          102931            0000000000                     00088508                         
DD19301958115    T2101070442013-2D924CMAMANI-MAMANI-BELTR2013120720131207000000000025000000000000000000000000000025000193024088604EFECTIVO    T210107044824JFI          102934            0000000000                     00088604                         
DD19301958115    UT101013112013-2DC24CREQUEJ-OBLITA-MESIA2013120720131207000000000025000000000000000000000000000025000193001089436EFECTIVO    UT10101311801EFI          103011            0000000000                     00089436                         
DD19301958115    UT033003472013-2D224CRACUA -MERCAD-ALEXI2013120720131207000000000022500000000000000000000000000022500485000092386EFECTIVO    UT03300347C23AFI          103308            0000000000                     00092386                         
DD19301958115    UT101022642013-2D324CSALAZA-VARGAS-EMMA 2013120720131207000000000025000000000000000000000000000025000194049092896EFECTIVO    UT10102264749AFI          103342            0000000000                     00092896                         
DD19301958115    UT022003922013-2D414CPILCO -ZAVALE-JULIO2013120720131110000000000022500000000000000810000000000023310111017218888EFECTIVO    UT02200392    PZ          103351            0000000000                     08218888                         
DD19301958115    UT022007382013-2D224CCASTRO-PARDO -ANGEL2013120720131207000000000022500000000000000000000000000022500111017219678EFECTIVO    UT02200738    PZ          103430            0000000000                     08219678                         
DD19301958115    UT032009342013-2D224CCHAVEZ-VALENZ-HERNA2013120720131207000000000022500000000000000000000000000022500111017219739EFECTIVO    UT03200934    PZ          103433            0000000000                     08219739                         
DD19301958115    UT101050712013-2D124CPALOMI-CARDEN-RICAR2013120720131207000000000027000000000000000000000000000027000111023220752EFECTIVO    UT10105071    IB          103522            0000000000                     08220752                         
DD19301958115    UT022007392013-2D224CMEDINA-CONZA -CARME2013120720131207000000000022500000000000000000000000000022500111017221176EFECTIVO    UT02200739    PZ          103542            0000000000                     08221176                         
DD19301958115    UT101020082013-2D424CBOBBIO-BERGER-BRUNO2013120720131207000000000025000000000000000000000000000025000000107097133EFECTIVO    UT10102008107AFI          103814            0000000000                     00097133                         
DD19301958115    UT112000712013-2D224CORDINO-CHANDU-MARTI2013120720131207000000000027000000000000000000000000000027000193008097129EFECTIVO    UT11200071808GFI          103814            0000000000                     00097129                         
DD19301958115    UT022001612013-2D624CARIAS -URRUTI-ROSA 2013120720131207000000000022500000000000000000000000000022500111017228812EFECTIVO    UT02200161    PZ          104149            0000000000                     08228812                         
DD19301958115    UT112001092013-2D214CRODRIG-NERI  -MONIC2013120720131110000000000027000000000000000810000000000027810111017229701EFECTIVO    UT11200109    PZ          104232            0000000000                     08229701                         
DD19301958115    UT101043052013-2D124CMORENO-VASQUE-JOISY2013120720131207000000000027000000000000000000000000000027000194008104062EFECTIVO    UT10104305708DFI          104522            0000000000                     00104062                         
DD19301958115    T1101040512013-2DC24CPEREZ -CALLAT-LIZBE2013120720131207000000000022500000000000000000000000000022500111017233638EFECTIVO    T110104051    PZ          104537            0000000000                     08233638                         
DD19301958115    T2102070142013-2D824CCABALL-TORRES-RAUL 2013120720131207000000000025000000000000000000000000000025000000066104902EFECTIVO    T210207014066CFI          104606            0000000000                     00104902                         
DD19301958115    UT005001762013-2D324CHERENC-TAPIA -IVANN2013120720131207000000000022500000000000000000000000000022500470000106312EFECTIVO    UT00500176CC2JFI          104723            0000000000                     00106312                         
DD19301958115    UT033004172013-2D224CSOTOMA-GAMBOA-YVONN2013120720131207000000000022500000000000000000000000000022500485000108160EFECTIVO    UT03300417C23AFI          104912            0000000000                     00108160                         
DD19301958115    UT101048992013-2D124CEGOUIL-ALBUJA-ARTUR2013120720131207000000000027000000000000000000000000000027000111017238198EFECTIVO    UT10104899    PZ          104912            0000000000                     08238198                         
DD19301958115    UT033004162013-2D224CSOTOMA-GAMBOA-YOSMA2013120720131207000000000022500000000000000000000000000022500485000108548EFECTIVO    UT03300416C23AFI          104936            0000000000                     00108548                         
DD19301958115    UT022005602013-2C234CPEREZ -ALVARE-PATRI2013120720131207000000000022500000000000000000000000000022500111017239050EFECTIVO    UT02200560    PZ          104951            0000000000                     08239050                         
DD19301958115    UT101037072013-2D224CHIGUER-MORALE-DAVID2013120720131207000000000027000000000000000000000000000027000111017239040EFECTIVO    UT10103707    PZ          104951            0000000000                     08239040                         
DD19301958115    UT101049952013-2D124CCOLLAN-ANCALL-CESAR2013120720131207000000000027000000000000000000000000000027000194059109753EFECTIVO    UT10104995759CFI          105049            0000000000                     00109753                         
DD19301958115    UT101038332013-2C234CCANCHO-HUAMAN-JESUS2013120720131207000000000027000000000000000000000000000027000111017243283EFECTIVO    UT10103833    PZ          105309            0000000000                     08243283                         
DD19301958115    UT026001062013-2C234CGARCIA-CHAVEZ-CARLO2013120720131207000000000022500000000000000000000000000022500390000113073EFECTIVO    UT02600106IQTDFI          105358            0000000000                     00113073                         
DD19301958115    UT017001732013-2D524CCARDEN-ACUNA -JHON 2013120720131207000000000022500000000000000000000000000022500355005113201EFECTIVO    UT01700173Y05BFI          105405            0000000000                     00113201                         
DD19301958115    UT017003132013-2D124CMALCA -VELASQ-LIDIA2013120720131207000000000022500000000000000000000000000022500355000113280EFECTIVO    UT01700313HYODFI          105410            0000000000                     00113280                         
DD19301958115    UT035000672013-2D524CGARCIA-TELLO -LESLI2013120720131207000000000022500000000000000000000000000022500111017248757EFECTIVO    UT03500067    PZ          105726            0000000000                     08248757                         
DD19301958115    UT112002762013-2D124CUCHUYA-REYES -LUIS 2013120720131207000000000027000000000000000000000000000027000000147120980EFECTIVO    UT11200276147DFI          110215            0000000000                     00120980                         
DD19301958115    UT018000872013-2C224CRAMIRE-CORDOV-CARLO2013120720131120000000000022500000000000000510000000000023010111017255172EFECTIVO    UT01800087    PZ          110217            0000000000                     08255172                         
DD19301958115  UT11103206802013-2D724CMAS   -SALAZA-HARLE2013120720131207000000000025000000000000000000000000000025000000141121466EFECTIVO  UT1110320680141GFI          110247            0000000000                     00121466                         
DD19301958115    IT023000852013-2B435CLEON  -PUGA  -SINTI2013120720131102000000000010900000000000001050000000000011950111017258181EFECTIVO    IT02300085    PZ          110438            0000000000                     08258181                         
DD19301958115    UT101028542013-2D324CGONZAL-CHAVEZ-WILLY2013120720131207000000000025000000000000000000000000000025000000023124554EFECTIVO    UT10102854023EFI          110616            0000000000                     00124554                         
DD19301958115    UT022008052013-2B134CABARCA-RODRIG-DANIE2013120720131130000000000022500000000000000210000000000022710111017260513EFECTIVO    UT02200805    PZ          110629            0000000000                     08260513                         
DD19301958115    UT101049412013-2D124CGONZAL-SALAZA-ANTRE2013120720131207000000000027000000000000000000000000000027000111017266635EFECTIVO    UT10104941    PZ          111112            0000000000                     08266635                         
DD19301958115    T2112110572013-2D614CFLORES-QUISPE-EDDY 2013120720131110000000000025000000000000000810000000000025810000105130011EFECTIVO    T211211057105BFI          111204            0000000000                     00130011                         
DD19301958115    T2102151352013-2D824CVISOSA-VELASC-LESLI2013120720131207000000000025000000000000000000000000000025000000038130549EFECTIVO    T210215135TUPDFI          111238            0000000000                     00130549                         
DD19301958115    UT023000012013-2D724CMULLUN-CHAMBI-MARIT2013120720131207000000000022500000000000000000000000000022500111017269681EFECTIVO    UT02300001    PZ          111330            0000000000                     08269681                         
DD19301958115    UT023000792013-2D524CPONCE -ALAVE -LUIS 2013120720131207000000000022500000000000000000000000000022500111017269742EFECTIVO    UT02300079    PZ          111334            0000000000                     08269742                         
DD19301958115    UT003001762013-2D414CTRUJIL-DAVID -EDINS2013120720131110000000000021500000000000000810000000000022310295000133610EFECTIVO    UT00300176C18DFI          111553            0000000000                     00133610                         
DD19301958115    UT101038662013-2C234CLUQUE -CORIMA-ALEJA2013120720131207000000000027000000000000000000000000000027000111017275651EFECTIVO    UT10103866    PZ          111802            0000000000                     08275651                         
DD19301958115    UT101036642013-2C234CUTIA  -LOPEZ -BECKE2013120720131207000000000027000000000000000000000000000027000111017276634EFECTIVO    UT10103664    PZ          111847            0000000000                     08276634                         
DD19301958115    UT101025152013-2D324CAVALOS-GARRIA-NOEMI2013120720131207000000000025000000000000000000000000000025000111017277289EFECTIVO    UT10102515    PZ          111916            0000000000                     08277289                         
DD19301958115    UT101051062013-2D124CSOLORZ-NAJARR-NADIA2013120720131207000000000027000000000000000000000000000027000000052138422EFECTIVO    UT10105106052CFI          112048            0000000000                     00138422                         
DD19301958115    IT012007932013-2B245CVALERA-AMASIF-DIEGO2013120720131202000000000010900000000000000150000000000011050111017280908EFECTIVO    IT01200793    PZ          112154            0000000000                     08280908                         
DD19301958115    T2112120142013-2D614CBUSTAM-OLIVA -YUDIT2013120720131110000000000022500000000000000810000000000023310000038141107EFECTIVO    T211212014TUPCFI          112330            0000000000                     00141107                         
DD19301958115    T2102061132013-2D524CSANCHE-CONDOR-VICTO2013120720131207000000000025000000000000000000000000000025000111017286880EFECTIVO    T210206113    PZ          112617            0000000000                     08286880                         
DD19301958115  UT11103200092013-2D624CARISTA-SANTIL-JAIRO2013120720131207000000000025000000000000000000000000000025000111017292726EFECTIVO  UT1110320009    PZ          113037            0000000000                     08292726                         
DD19301958115    UT038001552013-2C234CRAMIRE-VARAS -EDER 2013120720131207000000000022500000000000000000000000000022500310005147797EFECTIVO    UT03800155ESFFFI          113045            0000000000                     00147797                         
DD19301958115    IT033001992013-2B525CPEREZ -GALILE-BRIAN2013120720131004000000000010000000000000001920000000000011920485000148791EFECTIVO    IT03300199C23CFI          113157            0000000000                     00148791                         
DD19301958115    UT003001492013-2D514CVILLAR-URIBE -JOSE 2013120720131110000000000021500000000000000810000000000022310111017297671EFECTIVO    UT00300149    PZ          113416            0000000000                     08297671                         
DD19301958115    UT028002882013-2D424CVILLAL-LLANQU-LOURD2013120720131207000000000022500000000000000000000000000022500111017297806EFECTIVO    UT02800288    PZ          113421            0000000000                     08297806                         
DD19301958115    UT023007012013-2D124CALE   -CASILL-JHONY2013120720131207000000000022500000000000000000000000000022500111017299088EFECTIVO    UT02300701    PZ          113519            0000000000                     08299088                         
DD19301958115    UT012001182013-2D324CAMPUER-RIOS  -CHRIS2013120720131207000000000022500000000000000000000000000022500111017300240EFECTIVO    UT01200118    PZ          113612            0000000000                     08300240                         
DD19301958115    UT101047662013-2B134CCARRAN-MARCA -DALIL2013120720131130000000000027000000000000000210000000000027210111017301535EFECTIVO    UT10104766    PZ          113709            0000000000                     08301535                         
DD19301958115    UT101032242013-2D224CVIDAL -ARRUNA-PERCY2013120720131207000000000027000000000000000000000000000027000192022154032EFECTIVO    UT10103224622BFI          113735            0000000000                     00154032                         
DD19301958115    UT101019472013-2D424CALEGRE-GAMBOA-WILLI2013120720131207000000000025000000000000000000000000000025000192030154654EFECTIVO    UT10101947630IFI          113814            0000000000                     00154654                         
DD19301958115    UT028004692013-2D314CSERRUT-AROHUA-FRANC2013120720131110000000000022500000000000000810000000000023310111017304249EFECTIVO    UT02800469    PZ          113911            0000000000                     08304249                         
DD19301958115    IT035005272013-2B235CCANTA -POQUIO-NOEMI2013120720131102000000000010000000000000001050000000000011050111017311220EFECTIVO    IT03500527    PZ          114420            0000000000                     08311220                         
DD19301958115    UT032010192013-2B134CCONDOR-COILA -LUZ G2013120720131130000000000022500000000000000210000000000022710111017313575EFECTIVO    UT03201019    PZ          114605            0000000000                     08313575                         
DD19301958115    UT101028732013-2D324CLOPEZ -SALVAD-ANTON2013120720131207000000000025000000000000000000000000000025000193053161778EFECTIVO    UT10102873853CFI          114637            0000000000                     00161778                         
DD19301958115    UT101041742013-2D124CSALDAR-LLANTO-MELIS2013120720131207000000000027000000000000000000000000000027000111017316192EFECTIVO    UT10104174    PZ          114806            0000000000                     08316192                         
DD19301958115    UT101051222013-2D124CTORRES-PACHAS-ROBER2013120720131207000000000027000000000000000000000000000027000000006163535EFECTIVO    UT10105122006CFI          114859            0000000000                     00163535                         
DD19301958115  UT12123201102013-2D524CLACONI-NIZAMA-GABRI2013120720131207000000000025000000000000000000000000000025000111017319113EFECTIVO  UT1212320110    PZ          115020            0000000000                     08319113                         
DD19301958115    IT016001962013-2B325COCHOA -NIETO -CARLO2013120720131004000000000010000000000000001920000000000011920111017321750EFECTIVO    IT01600196    PZ          115222            0000000000                     08321750                         
DD19301958115    UT034000782013-2D324CPURIZA-CAMPOS-LOREN2013120720131207000000000022500000000000000000000000000022500335002169690EFECTIVO    UT03400078PSHIFI          115645            0000000000                     00169690                         
DD19301958115    UT032006702013-2D324CCONCEP-OLANDA-ELIZA2013120720131207000000000022500000000000000000000000000022500111017327696EFECTIVO    UT03200670    PZ          115655            0000000000                     08327696                         
DD19301958115    UT014000312013-2D524CQUINTE-DE LA -LIZ E2013120720131207000000000022500000000000000000000000000022500350000170021EFECTIVO    UT01400031C31AFI          115702            0000000000                     00170021                         
DD19301958115    UT034001362013-2D224CCARHUA-VIA   -GARY 2013120720131207000000000022500000000000000000000000000022500335002170187EFECTIVO    UT03400136PSHIFI          115711            0000000000                     00170187                         
DD19301958115    UT011000992013-2D624CHUAMAN-VELASQ-FRANK2013120720131207000000000021700000000000000000000000000021700220000170387EFECTIVO    UT01100099AYCCFI          115722            0000000000                     00170387                         
DD19301958115    UT101046162013-2D124CMUSAYO-ARAUJO-BRUNO2013120720131207000000000027000000000000000000000000000027000111017328260EFECTIVO    UT10104616    PZ          115722            0000000000                     08328260                         
DD19301958115    UT017002112013-2C234CQUISPE-SANCHE-BETZA2013120720131207000000000022500000000000000000000000000022500111017330751EFECTIVO    UT01700211    PZ          115911            0000000000                     08330751                         
DD19301958115  UT11203203532013-2D624CRONCAL-LLANOS-LUZ E2013120720131207000000000025000000000000000000000000000025000111017336246EFECTIVO  UT1120320353    PZ          120322            0000000000                     08336246                         
DD19301958115    UT021002612013-2D124CBENITE-SHEEN -CESAR2013120720131207000000000022500000000000000000000000000022500111017336518EFECTIVO    UT02100261    PZ          120335            0000000000                     08336518                         
DD19301958115    UT032009272013-2D224CFUENTE-LOAIZA-CARLO2013120720131207000000000022500000000000000000000000000022500111017337771EFECTIVO    UT03200927    PZ          120433            0000000000                     08337771                         
DD19301958115    UT101041262013-2D124CPACHEC-NEYRA -DANIE2013120720131207000000000027000000000000000000000000000027000194020176580EFECTIVO    UT10104126720EFI          120501            0000000000                     00176580                         
DD19301958115    UT019002802013-2C224CCORRAL-LOZANO-JOSE 2013120720131120000000000022500000000000000510000000000023010533000177861EFECTIVO    UT01900280C38FFI          120646            0000000000                     00177861                         
DD19301958115    UT101006382013-2D224CVILCAP-NAUPA -GUENE2013120720131207000000000025000000000000000000000000000025000111017341252EFECTIVO    UT10100638    PZ          120708            0000000000                     08341252                         
DD19301958115    UT016001252013-2D324CSANCHE-PALOMI-SONIA2013120720131207000000000022500000000000000000000000000022500550001179712EFECTIVO    UT01600125PEEDFI          120905            0000000000                     00179712                         
DD19301958115    UT101045702013-2B134CRAMOS -VILLAL-SANTI2013120720131130000000000027000000000000000210000000000027210111017346050EFECTIVO    UT10104570    PZ          121042            0000000000                     08346050                         
DD19301958115    UT101050522013-2D124CRAMOS -PACHEC-TAKES2013120720131207000000000027000000000000000000000000000027000000066182349EFECTIVO    UT10105052066AFI          121221            0000000000                     00182349                         
DD19301958115    UT101049372013-2D124CYESAN -GARCIA-NATHA2013120720131207000000000027000000000000000000000000000027000111017349107EFECTIVO    UT10104937    PZ          121259            0000000000                     08349107                         
DD19301958115    IT023002992013-2B445CNIETO -CONTRE-FLORE2013120720131202000000000010900000000000000150000000000011050111017349455EFECTIVO    IT02300299    PZ          121317            0000000000                     08349455                         
DD19301958115    UT022006342013-2C234CSICOS -PERALT-ESTEF2013120720131207000000000022500000000000000000000000000022500111017349730EFECTIVO    UT02200634    PZ          121329            0000000000                     08349730                         
DD19301958115    UT101050842013-2D124CQUISPE-RIOS  -KLEVE2013120720131207000000000027000000000000000000000000000027000000037184515EFECTIVO    UT10105084037DFI          121501            0000000000                     00184515                         
DD19301958115    UT101042162013-2D124CREINA -TAFUR -ELIAN2013120720131207000000000027000000000000000000000000000027000192054186848EFECTIVO    UT10104216654BFI          121743            0000000000                     00186848                         
DD19301958115    UT101034412013-2D214CAVALOS-MENDOZ-KAREN2013120720131110000000000027000000000000000810000000000027810111017355636EFECTIVO    UT10103441    PZ          121751            0000000000                     08355636                         
DD19301958115  UT11203200812013-2D624CRODRIG-ZARATE-NORKA2013120720131207000000000025000000000000000000000000000025000111017359206EFECTIVO  UT1120320081    PZ          122033            0000000000                     08359206                         
DD19301958115  UT11203200542013-2D624CTOLENT-ZAPATA-JOSE 2013120720131207000000000025000000000000000000000000000025000111017360889EFECTIVO  UT1120320054    PZ          122150            0000000000                     08360889                         
DD19301958115    T2101040312013-2D924CHURTAD-LLALLI-ROCIO2013120720131207000000000016300000000000000000000000000016300000002192403EFECTIVO    T210104031002CFI          122427            0000000000                     00192403                         
DD19301958115    UT101029862013-2D224CDEVOTT-FIGALL-JACQU2013120720131207000000000025000000000000000000000000000025000194058193440EFECTIVO    UT10102986758EFI          122548            0000000000                     00193440                         
DD19301958115    UT017003202013-2D124CVALDEZ-MERINO-MARIL2013120720131207000000000022500000000000000000000000000022500111017366879EFECTIVO    UT01700320    PZ          122621            0000000000                     08366879                         
DD19301958115    UT101030272013-2D224CARROYO-ZAPATA-CESAR2013120720131207000000000027000000000000000000000000000027000111023367958EFECTIVO    UT10103027    IB          122713            0000000000                     08367958                         
DD19301958115    UT003003082013-2D214CREYES -SALGAD-AMPAR2013120720131110000000000022500000000000000810000000000023310111017368316EFECTIVO    UT00300308    PZ          122731            0000000000                     08368316                         
DD19301958115    UT101044102013-2D124CESCALA-MUNOZ -JORGE2013120720131207000000000027000000000000000000000000000027000111017370038EFECTIVO    UT10104410    PZ          122848            0000000000                     08370038                         
DD19301958115    UT011003312013-2C234CCUSI  -CONDE -LAZAR2013120720131207000000000022500000000000000000000000000022500220000195855EFECTIVO    UT01100331AYCBFI          122853            0000000000                     00195855                         
DD19301958115    UT101049902013-2D124CSANTOS-RIOS  -DANIE2013120720131207000000000027000000000000000000000000000027000000066196194EFECTIVO    UT10104990066AFI          122921            0000000000                     00196194                         
DD19301958115    UT101041822013-2D124CREVORE-GUEVAR-LUIS 2013120720131207000000000027000000000000000000000000000027000111017371022EFECTIVO    UT10104182    PZ          122935            0000000000                     08371022                         
DD19301958115    UT101037432013-2C234CDIAZ  -ROJAS -MARCI2013120720131207000000000027000000000000000000000000000027000111017375429EFECTIVO    UT10103743    PZ          123258            0000000000                     08375429                         
DD19301958115    UT032009402013-2D224CHUACAS-QUISPE-MOYBE2013120720131207000000000022500000000000000000000000000022500215003201315EFECTIVO    UT03200940A03BFI          123545            0000000000                     00201315                         
DD19301958115    UT101040722013-2D124CANDRAD-BIMINC-PAOLA2013120720131207000000000027000000000000000000000000000027000192025203054EFECTIVO    UT10104072625EFI          123758            0000000000                     00203054                         
DD19301958115    UT101050492013-2D124CTAPIA -INCHIC-ISABE2013120720131207000000000027000000000000000000000000000027000194027203942EFECTIVO    UT10105049727FFI          123905            0000000000                     00203942                         
DD19301958115    UT022008942013-2D124CYAHUAY-MAMANI-ROSA 2013120720131207000000000022500000000000000000000000000022500285000204215EFECTIVO    UT02200894LEZDFI          123923            0000000000                     00204215                         
DD19301958115    UT106001762013-2D224CVALDEZ-SEGURA-MARIA2013120720131207000000000027000000000000000000000000000027000193049205039EFECTIVO    UT10600176849EFI          124015            0000000000                     00205039                         
DD19301958115    UT032009802013-2B134CESPINO-GUTIER-CHRIS2013120720131130000000000022500000000000000210000000000022710111017386556EFECTIVO    UT03200980    PZ          124133            0000000000                     08386556                         
DD19301958115    UT101034322013-2D224CALVA  -CALCIN-ELIAN2013120720131207000000000027000000000000000000000000000027000111017388073EFECTIVO    UT10103432    PZ          124241            0000000000                     08388073                         
DD19301958115    IT033003632013-2B635CMONZON-QQUELL-EVELY2013120720131102000000000010000000000000001050000000000011050111017388623EFECTIVO    IT03300363    PZ          124305            0000000000                     08388623                         
DD19301958115    UT101030512013-2D224CDURAND-CAMACH-RONY 2013120720131207000000000027000000000000000000000000000027000111017389430EFECTIVO    UT10103051    PZ          124342            0000000000                     08389430                         
DD19301958115    IT010001672013-2B635CSARANG-OYOLA -FIORE2013120720131102000000000010000000000000001050000000000011050575000208229EFECTIVO    IT01000167YPAAFI          124431            0000000000                     00208229                         
DD19301958115    UT101038682013-2C224CQUISPE-BANCHO-JOSE 2013120720131109000000000027000000000000000840000000000027840000055209802EFECTIVO    UT10103868055HFI          124629            0000000000                     00209802                         
DD19301958115    T0091001882013-2DC24CDOMING-PARDAV-MADEL2013120720131207000000000025000000000000000000000000000025000111023394208EFECTIVO    T009100188    IB          124729            0000000000                     08394208                         
DD19301958115    UT101041902013-2D124CCHICNE-VILLAN-KEVIN2013120720131207000000000027000000000000000000000000000027000111017394517EFECTIVO    UT10104190    PZ          124745            0000000000                     08394517                         
DD19301958115    UT101006972013-2D724CALBITR-SEGUIN-ADELA2013120720131207000000000025000000000000000000000000000025000000108212839EFECTIVO    UT10100697108GFI          125006            0000000000                     00212839                         
DD19301958115    UT013003882013-2C234CCONDOR-MUNOZ -WALTE2013120720131207000000000022500000000000000000000000000022500111017397833EFECTIVO    UT01300388    PZ          125023            0000000000                     08397833                         
DD19301958115    UT023000562013-2D824CMAMANI-LUQUE -NORMA2013120720131207000000000022500000000000000000000000000022500540000214450EFECTIVO    UT02300056TACCFI          125205            0000000000                     00214450                         
DD19301958115    UT101013462013-2D424CCABALL-FLORES-MADIL2013120720131207000000000025000000000000000000000000000025000194009215110EFECTIVO    UT10101346709DFI          125257            0000000000                     00215110                         
DD19301958115    UT021002252013-2B134CPEREZ -GARCIA-SOLED2013120720131130000000000022500000000000000210000000000022710380000216246EFECTIVO    UT02100225IKADFI          125417            0000000000                     00216246                         
DD19301958115    UT101026802013-2D324CCESPED-RODA  -MIGUE2013120720131207000000000017500000000000000000000000000017500192054216706EFECTIVO    UT10102680654FFI          125455            0000000000                     00216706                         
DD19301958115    UT021002272013-2B134CHUARCA-UTURUN-NOLA 2013120720131130000000000022500000000000000210000000000022710380000216942EFECTIVO    UT02100227IKADFI          125512            0000000000                     00216942                         
DD19301958115    UT101017802013-2DC24CARROYO-ALVARE-ALAN 2013120720131207000000000025000000000000000000000000000025000000075216983EFECTIVO    UT10101780075EFI          125514            0000000000                     00216983                         
DD19301958115  UT11200601142013-2DC14CYARLEQ-VALLE -YESSE2013120720131110000000000025000000000000000810000000000025810194055216972EFECTIVO  UT1120060114755RFI          125514            0000000000                     00216972                         
DD19301958115  UT12122120112013-2DC24CAZCONA-CANO  -MARTH2013120720131207000000000025000000000000000000000000000025000194011217643EFECTIVO  UT1212212011711AFI          125600            0000000000                     00217643                         
DD19301958115    UT101025002013-2D324CPECHE -DEL PO-JHON 2013120720131207000000000025000000000000000000000000000025000193063218803EFECTIVO    UT10102500863CFI          125743            0000000000                     00218803                         
DD19301958115    IT012008672013-2B245CDAZA  -SANCHE-GREYS2013120720131202000000000010900000000000000150000000000011050111017407592EFECTIVO    IT01200867    PZ          125836            0000000000                     08407592                         
DD19301958115    UT022008122013-2B134CCCALLO-HUAICO-EMERS2013120720131130000000000022500000000000000210000000000022710285006219473EFECTIVO    UT02200812Z06GFI          125839            0000000000                     00219473                         
DD19301958115    UT101041542013-2D124CVALDEO-GARAY -SANDR2013120720131207000000000027000000000000000000000000000027000000030221904EFECTIVO    UT10104154030AFI          130211            0000000000                     00221904                         
DD19301958115  UT11203203592013-2D624CPANDUR-VARGAS-ROSA 2013120720131207000000000025000000000000000000000000000025000111023413305EFECTIVO  UT1120320359    IB          130335            0000000000                     08413305                         
DD19301958115    UT022002962013-2D424CFLORES-NAVARR-YENNY2013120720131207000000000022500000000000000000000000000022500111017414602EFECTIVO    UT02200296    PZ          130441            0000000000                     08414602                         
DD19301958115    UT101019022013-2D424CSANTOS-CRUZ  -EVELI2013120720131207000000000025000000000000000000000000000025000111017414743EFECTIVO    UT10101902    PZ          130448            0000000000                     08414743                         
DD19301958115    UT034001212013-2C234CBARBOZ-CHERRE-MARIA2013120720131207000000000022500000000000000000000000000022500335000223958EFECTIVO    UT03400121LHHBFI          130504            0000000000                     00223958                         
DD19301958115    UT112000942013-2D224CCUYA  -MITMA -CRIST2013120720131207000000000027000000000000000000000000000027000111017415200EFECTIVO    UT11200094    PZ          130511            0000000000                     08415200                         
DD19301958115    UT101043672013-2D124CAGUIRR-ZAQUIN-ANYEL2013120720131207000000000027000000000000000000000000000027000111017415868EFECTIVO    UT10104367    PZ          130541            0000000000                     08415868                         
DD19301958115    UT101034092013-2D224CJURADO-ALLCCA-SIXTA2013120720131207000000000027000000000000000000000000000027000111017416588EFECTIVO    UT10103409    PZ          130616            0000000000                     08416588                         
DD19301958115    UT101051522013-2D124CHERRAD-AGUILA-FRANC2013120720131207000000000027000000000000000000000000000027000111017418160EFECTIVO    UT10105152    PZ          130735            0000000000                     08418160                         
DD19301958115    UT101042302013-2D124CRODRIG-ROJAS -NELSA2013120720131207000000000027000000000000000000000000000027000111017422127EFECTIVO    UT10104230    PZ          131100            0000000000                     08422127                         
DD19301958115    UT106002412013-2B134CCABANI-PALACI-ANDER2013120720131130000000000027000000000000000210000000000027210111017423255EFECTIVO    UT10600241    PZ          131156            0000000000                     08423255                         
DD19301958115    UT112001662013-2D224CCASTRO-SILVA -WALTE2013120720131207000000000027000000000000000000000000000027000111017423718EFECTIVO    UT11200166    PZ          131219            0000000000                     08423718                         
DD19301958115    UT101045532013-2B124CAUGUST-JIMENE-GRECC2013120720131026000000000027000000000000001260000000000028260111017424790EFECTIVO    UT10104553    PZ          131311            0000000000                     08424790                         
DD19301958115    T2101080482013-2DC24CQUISPE-ARTICA-MIQUE2013120720131207000000000025000000000000000000000000000025000111017429946EFECTIVO    T210108048    PZ          131727            0000000000                     08429946                         
DD19301958115    UT112001202013-2C234CROJAS -TRAVEZ-JEANN2013120720131207000000000027000000000000000000000000000027000000087232686EFECTIVO    UT11200120087GFI          131852            0000000000                     00232686                         
DD19301958115    UT106000682013-2D424CPORTOC-ANICET-LINDA2013120720131207000000000025000000000000000000000000000025000111017435538EFECTIVO    UT10600068    PZ          132221            0000000000                     08435538                         
DD19301958115  UT12121100962013-2D524CCORDOV-CHAMBI-MARTI2013120720131207000000000025000000000000000000000000000025000111017435690EFECTIVO  UT1212110096    PZ          132229            0000000000                     08435690                         
DD19301958115    UT022001772013-2D324CTINAJE-ABARCA-ELBA 2013120720131207000000000022500000000000000000000000000022500111017436381EFECTIVO    UT02200177    PZ          132304            0000000000                     08436381                         
DD19301958115    UT101051052013-2D124CTITO  -BERROC-HILDA2013120720131207000000000027000000000000000000000000000027000194025235150EFECTIVO    UT10105105725DFI          132347            0000000000                     00235150                         
DD19301958115    T2102080012013-2D824CALVARO-ALOSIL-MARIA2013120720131207000000000025000000000000000000000000000025000193063236373EFECTIVO    T210208001863CFI          132630            0000000000                     00236373                         
DD19301958115    UT101049602013-2D124CESCUDE-ACOSTA-SIRLE2013120720131207000000000027000000000000000000000000000027000111017442449EFECTIVO    UT10104960    PZ          132828            0000000000                     08442449                         
DD19301958115    UT116000532013-2C234CORIHUE-ELIAS -YOLAN2013120720131207000000000027000000000000000000000000000027000111017450102EFECTIVO    UT11600053    PZ          133527            0000000000                     08450102                         
DD19301958115    UT013004792013-2D224CMAMANI-OCHOA -TEOFI2013120720131207000000000022500000000000000000000000000022500111017451639EFECTIVO    UT01300479    PZ          133655            0000000000                     08451639                         
DD19301958115    UT101029412013-2D224CAQUINO-VILLAF-ANET 2013120720131207000000000025000000000000000000000000000025000111017455212EFECTIVO    UT10102941    PZ          134015            0000000000                     08455212                         
DD19301958115    UT101016682013-2D424CVALVER-INGA  -SERGI2013120720131207000000000025000000000000000000000000000025000111017455321EFECTIVO    UT10101668    PZ          134021            0000000000                     08455321                         
DD19301958115    UT101049572013-2D124CGARCIA-NINO L-DANTE2013120720131207000000000027000000000000000000000000000027000111017461548EFECTIVO    UT10104957    PZ          134615            0000000000                     08461548                         
DD19301958115    UT011001462013-2D314CVENTUR-TACAS -ADRIA2013120720131110000000000022500000000000000810000000000023310220000244107EFECTIVO    UT01100146CC6GFI          134617            0000000000                     00244107                         
DD19301958115    UT101032762013-2DC24CSAENZ -ALFARO-NELLY2013120720131207000000000027000000000000000000000000000027000111017464537EFECTIVO    UT10103276    PZ          134906            0000000000                     08464537                         
DD19301958115    IT012000932013-2B645CGONZAL-NIEVES-HERLI2013120720131202000000000010900000000000000150000000000011050111017468499EFECTIVO    IT01200093    PZ          135302            0000000000                     08468499                         
DD19301958115    UT110000152013-2D224CSOTELO-NEYRA -ELLEN2013120720131207000000000027000000000000000000000000000027000111017472707EFECTIVO    UT11000015    PZ          135721            0000000000                     08472707                         
DD19301958115    UT101041152013-2D124CCABRER-REQUEN-JEANP2013120720131207000000000027000000000000000000000000000027000111017472801EFECTIVO    UT10104115    PZ          135727            0000000000                     08472801                         
DD19301958115    UT101035062013-2D224CLLANOS-SORIAN-PETRO2013120720131207000000000027000000000000000000000000000027000111017476684EFECTIVO    UT10103506    PZ          140130            0000000000                     08476684                         
DD19301958115    IT022002022013-2B335CLLALLA-HUANAC-EISTE2013120720131201000000000010000000000000000180000000000010180111017476991EFECTIVO    IT02200202    PZ          140150            0000000000                     08476991                         
DD19301958115    IT023007022013-2C125CALARCO-HUAYTA-RODY 2013120720131203000000000010900000000000000120000000000011020111017478443EFECTIVO    IT02300702    PZ          140318            0000000000                     08478443                         
DD19301958115    UT029001772013-2D124CCOLCHA-CUBAS -JORGE2013120720131207000000000022500000000000000000000000000022500111017479006EFECTIVO    UT02900177    PZ          140355            0000000000                     08479006                         
DD19301958115    UT011001542013-2D424CAYALA -VASQUE-RICHA2013120720131207000000000022500000000000000000000000000022500111017481133EFECTIVO    UT01100154    PZ          140601            0000000000                     08481133                         
DD19301958115    UT023005592013-2C234CCHOQUE-MAQUER-ALEX 2013120720131207000000000022500000000000000000000000000022500111017484808EFECTIVO    UT02300559    PZ          140951            0000000000                     08484808                         
DD19301958115    UT101049612013-2D124CUBILLU-VILLA -KATHE2013120720131207000000000027000000000000000000000000000027000111017485632EFECTIVO    UT10104961    PZ          141044            0000000000                     08485632                         
DD19301958115    IT023004012013-2B435CMAMANI-MARON -LIZBE2013120720131102000000000010900000000000001050000000000011950111017487896EFECTIVO    IT02300401    PZ          141309            0000000000                     08487896                         
DD19301958115    UT013002942013-2D324CMAMANI-CHAMBI-LESME2013120720131207000000000022500000000000000000000000000022500111017488918EFECTIVO    UT01300294    PZ          141413            0000000000                     08488918                         
DD19301958115    UT029000792013-2D524CSIESQU-CHAPON-MIGUE2013120720131207000000000022500000000000000000000000000022500111017489090EFECTIVO    UT02900079    PZ          141424            0000000000                     08489090                         
DD19301958115    UT101030422013-2D214CPERALE-NUNEZ -ELVIN2013120720131110000000000027000000000000000810000000000027810111017492701EFECTIVO    UT10103042    PZ          141812            0000000000                     08492701                         
DD19301958115    UT101017152013-2D424CTAPIA -DIAZ  -YOLA 2013120720131207000000000025000000000000000000000000000025000111017493871EFECTIVO    UT10101715    PZ          141925            0000000000                     08493871                         
DD19301958115    IT016001962013-2B335COCHOA -NIETO -CARLO2013120720131102000000000010000000000000001050000000000011050111017497091EFECTIVO    IT01600196    PZ          142252            0000000000                     08497091                         
DD19301958115    UT028003222013-2D424CAROHUA-NINA  -WILBE2013120720131207000000000022500000000000000000000000000022500111017507480EFECTIVO    UT02800322    PZ          143412            0000000000                     08507480                         
DD19301958115    UT101033592013-2D224CBASTID-FERNAN-JORGE2013120720131207000000000027000000000000000000000000000027000111017511832EFECTIVO    UT10103359    PZ          143901            0000000000                     08511832                         
DD19301958115    UT016000402013-2DX24CYANAPA-CENTEN-GUILL2013120720131207000000000022500000000000000000000000000022500111023516420EFECTIVO    UT01600040    IB          144415            0000000000                     08516420                         
DD19301958115    UT032007492013-2D324CESCOBE-DELGAD-JOSE 2013120720131207000000000022500000000000000000000000000022500111017521090EFECTIVO    UT03200749    PZ          144935            0000000000                     08521090                         
DD19301958115    UT023000192013-2D724CFLORES-TUCO  -IVONE2013120720131207000000000022500000000000000000000000000022500111017525904EFECTIVO    UT02300019    PZ          145516            0000000000                     08525904                         
DD19301958115    UT101042232013-2D124CABAD  -LOPEZ -AMBAR2013120720131207000000000027000000000000000000000000000027000111017534431EFECTIVO    UT10104223    PZ          150535            0000000000                     08534431                         
DD19301958115    UT101018032013-2D424CCARRAS-TARAZO-AMPAR2013120720131207000000000025000000000000000000000000000025000111017536295EFECTIVO    UT10101803    PZ          150750            0000000000                     08536295                         
DD19301958115    UT101032962013-2D224CFRANCI-CARRAN-VICTO2013120720131207000000000027000000000000000000000000000027000111017536350EFECTIVO    UT10103296    PZ          150753            0000000000                     08536350                         
DD19301958115    UT101034962013-2D224CVILLAR-ARISTA-LEILY2013120720131207000000000027000000000000000000000000000027000111017538484EFECTIVO    UT10103496    PZ          151030            0000000000                     08538484                         
DD19301958115    UT022007002013-2D224CCUELLA-QUISPE-KAREN2013120720131207000000000022500000000000000000000000000022500111017544946EFECTIVO    UT02200700    PZ          151812            0000000000                     08544946                         
DD19301958115    UT011001712013-2D524CHUAMAN-BENDEZ-YENRY2013120720131207000000000022500000000000000000000000000022500111017545249EFECTIVO    UT01100171    PZ          151833            0000000000                     08545249                         
DD19301958115    UT101042652013-2D124CESPINO-PANTI -MARIS2013120720131207000000000027000000000000000000000000000027000111017553652EFECTIVO    UT10104265    PZ          152824            0000000000                     08553652                         
DD19301958115    UT101042662013-2D124CQUINE -GAMARR-CARLO2013120720131207000000000027000000000000000000000000000027000111017555591EFECTIVO    UT10104266    PZ          153049            0000000000                     08555591                         
DD19301958115    UT019000752013-2D624CHUALLP-SALCED-ALBER2013120720131207000000000022500000000000000000000000000022500111017556890EFECTIVO    UT01900075    PZ          153224            0000000000                     08556890                         
DD19301958115    UT028003592013-2D324CTICONA-VILCA -CECIL2013120720131207000000000017500000000000000000000000000017500111017559637EFECTIVO    UT02800359    PZ          153534            0000000000                     08559637                         
DD19301958115    UT116000382013-2D214CAMASIF-ALVARA-ESDRA2013120720131110000000000027000000000000000810000000000027810111017560830EFECTIVO    UT11600038    PZ          153656            0000000000                     08560830                         
DD19301958115    IT019003532013-2B435CHUILLC-TURPO -SADAM2013120720131102000000000010000000000000001050000000000011050111017564308EFECTIVO    IT01900353    PZ          154058            0000000000                     08564308                         
DD19301958115    UT017002322013-2C234CSOLANO-DIEGO -ELMER2013120720131207000000000022500000000000000000000000000022500111017564361EFECTIVO    UT01700232    PZ          154102            0000000000                     08564361                         
DD19301958115    IT012006972013-2B235CNAVARR-COLLAN-MARIG2013120720131102000000000010900000000000001050000000000011950111017564471EFECTIVO    IT01200697    PZ          154110            0000000000                     08564471                         
DD19301958115    UT101034642013-2D224CHERNAN-ALVARA-JUAN 2013120720131207000000000027000000000000000000000000000027000111017570857EFECTIVO    UT10103464    PZ          154834            0000000000                     08570857                         
DD19301958115    T2102040802013-2D814CTORRES-CAMPOS-MARIA2013120720131110000000000025000000000000000810000000000025810111017570902EFECTIVO    T210204080    PZ          154838            0000000000                     08570902                         
DD19301958115    UT101028392013-2DC24CLION  -AREVAL-CHIME2013120720131207000000000025000000000000000000000000000025000111023571561EFECTIVO    UT10102839    IB          154924            0000000000                     08571561                         
DD19301958115    UT106001152013-2D324CAGUINA-ESPINO-HECTO2013120720131207000000000025000000000000000000000000000025000111017576739EFECTIVO    UT10600115    PZ          155530            0000000000                     08576739                         
DD19301958115    UT999005112013-2D524CRIVAS -PEREZ -PEDRO2013120720131207000000000025000000000000000000000000000025000111017577279EFECTIVO    UT99900511    PZ          155608            0000000000                     08577279                         
DD19301958115    IT023003412013-2B435CCONDOR-MAMANI-MARY 2013120720131102000000000010900000000000001050000000000011950111017579121EFECTIVO    IT02300341    PZ          155812            0000000000                     08579121                         
DD19301958115    UT101042292013-2D124CMASSIR-MARQUE-SABIN2013120720131207000000000027000000000000000000000000000027000111017579381EFECTIVO    UT10104229    PZ          155831            0000000000                     08579381                         
DD19301958115    UT101041652013-2D124CPONTE -MERA  -LUIS 2013120720131207000000000027000000000000000000000000000027000111017585547EFECTIVO    UT10104165    PZ          160550            0000000000                     08585547                         
DD19301958115  UT11203205122013-2D624CZAVALE-CHAVEZ-FLORI2013120720131207000000000025000000000000000000000000000025000111017586347EFECTIVO  UT1120320512    PZ          160649            0000000000                     08586347                         
DD19301958115    UT101037002013-2C224CVASQUE-VILLAN-EDWIN2013120720131109000000000027000000000000000840000000000027840111017588717EFECTIVO    UT10103700    PZ          160935            0000000000                     08588717                         
DD19301958115    UT101051242013-2D124CGUEVAR-HIDALG-BETHY2013120720131207000000000027000000000000000000000000000027000111017591363EFECTIVO    UT10105124    PZ          161241            0000000000                     08591363                         
DD19301958115    UT101017582013-2D424CENCINA-GOMEZ -JOSE 2013120720131207000000000025000000000000000000000000000025000111017591550EFECTIVO    UT10101758    PZ          161255            0000000000                     08591550                         
DD19301958115    UT023000302013-2D824CALEJO -QUISPE-YHONY2013120720131207000000000022500000000000000000000000000022500111017591610EFECTIVO    UT02300030    PZ          161258            0000000000                     08591610                         
DD19301958115    UT101031442013-2D224CPORTAL-LUYO  -MARTH2013120720131207000000000027000000000000000000000000000027000111017595615EFECTIVO    UT10103144    PZ          161737            0000000000                     08595615                         
DD19301958115    UT101027882013-2D324CARELLA-GAMBOA-JORGE2013120720131207000000000025000000000000000000000000000025000111017598258EFECTIVO    UT10102788    PZ          162047            0000000000                     08598258                         
DD19301958115    UT106001162013-2D324CESPINO-SALDIV-ELSA 2013120720131207000000000025000000000000000000000000000025000111017598286EFECTIVO    UT10600116    PZ          162049            0000000000                     08598286                         
DD19301958115    UT106001172013-2D324CAGUINA-ESPINO-ELIZA2013120720131207000000000025000000000000000000000000000025000111017599942EFECTIVO    UT10600117    PZ          162239            0000000000                     08599942                         
DD19301958115    UT101007612013-2D524CMUNOZ -TENORI-MANUE2013120720131207000000000025000000000000000000000000000025000111017600693EFECTIVO    UT10100761    PZ          162333            0000000000                     08600693                         
DD19301958115    UT034000422013-2D514CRAMIRE-CHIRRE-SILVI2013120720131110000000000022500000000000000810000000000023310111017604122EFECTIVO    UT03400042    PZ          162731            0000000000                     08604122                         
DD19301958115    UT101014592013-2D424CMEDINA-PALACI-ANTON2013120720131207000000000025000000000000000000000000000025000111017604995EFECTIVO    UT10101459    PZ          162831            0000000000                     08604995                         
DD19301958115    UT101033552013-2D224CINFANT-SAAVED-CARLO2013120720131207000000000027000000000000000000000000000027000111017605659EFECTIVO    UT10103355    PZ          162916            0000000000                     08605659                         
